:020000040800F2
:1000000000500020111B0008E1190008E919000840
:10001000F1190008F9190008011A00080000000091
:10002000000000000000000000000000091A0008A5
:10003000151A000800000000211A00082D1A0008F7
:10004000591B0008591B0008591B0008591B0008C0
:10005000591B0008591B0008391A0008591B0008D1
:10006000591B0008591B0008591B0008591B0008A0
:10007000591B0008591B0008591B0008591B000890
:10008000591B0008591B0008591B0008591B000880
:10009000591B0008591B0008591B0008471A000883
:1000A000551A0008691A00087D1A0008911A0008FC
:1000B000591B0008A51A0008B91A0008591B0008A6
:1000C000591B0008591B0008591B0008591B000840
:1000D000591B0008591B0008591B0008591B000830
:1000E000CD1A0008591B0008591B00080000000029
:1000F0000000000000000000000000000000000000
:0C01000000000000000000005FF808F1A3
:1001100010B5054C237833B9044B13B10448AFF341
:1001200000800123237010BD0C000020000000009F
:10013000A03A000808B5034B1BB103490348AFF3CD
:10014000008008BD0000000010000020A03A000858
:100150004FF0FF0C1CEAD0521EBF1CEAD15392EAAA
:100160000C0F93EA0C0F6FD01A4480EA010C400286
:1001700018BF5FEA41211ED04FF0006343EA5010E0
:1001800043EA5111A0FB01310CF00040B1F5000F22
:100190003EBF490041EAD3715B0040EA010062F1D1
:1001A0007F02FD2A1DD8B3F1004F40EBC25008BFBB
:1001B00020F00100704790F0000F0CF0004C08BFD9
:1001C00049024CEA502040EA51207F3AC2BFD2F1A6
:1001D000FF0340EAC250704740F400004FF00003B4
:1001E000013A5DDC12F1190FDCBF00F000407047EE
:1001F000C2F10002410021FA02F1C2F1200200FA2C
:1002000002FC5FEA310040F1000053EA4C0308BFF2
:1002100020EADC70704792F0000F00F0004C02BF43
:10022000400010F4000F013AF9D040EA0C0093F0BE
:10023000000F01F0004C02BF490011F4000F013B18
:10024000F9D041EA0C018FE70CEAD15392EA0C0F86
:1002500018BF93EA0C0F0AD030F0004C18BF31F0F1
:10026000004CD8D180EA010000F00040704790F0C7
:10027000000F17BF90F0004F084691F0000F91F06B
:10028000004F14D092EA0C0F01D142020FD193EA31
:100290000C0F03D14B0218BF084608D180EA0100B9
:1002A00000F0004040F0FE4040F40000704740F095
:1002B000FE4040F44000704781F0004102E000BF82
:1002C00083F0004330B54FEA41044FEA430594EA16
:1002D000050F08BF90EA020F1FBF54EA000C55EA51
:1002E000020C7FEA645C7FEA655C00F0E2804FEA22
:1002F0005454D4EB5555B8BF6D420CDD2C4480EA04
:10030000020281EA030382EA000083EA010180EA33
:10031000020281EA0303362D88BF30BD11F0004F81
:100320004FEA01314FF4801C4CEA113102D04042B7
:1003300061EB410113F0004F4FEA03334CEA1333F2
:1003400002D0524263EB430394EA050F00F0A7800A
:10035000A4F10104D5F1200E0DDB02FA0EFC22FA05
:1003600005F2801841F1000103FA0EF2801843FAF9
:1003700005F359410EE0A5F120050EF1200E012AEA
:1003800003FA0EFC28BF4CF0020C43FA05F3C01828
:1003900051EBE37101F0004507D54FF0000EDCF1A1
:1003A000000C7EEB00006EEB0101B1F5801F1BD34A
:1003B000B1F5001F0CD349085FEA30004FEA3C0C4E
:1003C00004F101044FEA445212F5800F80F09A8044
:1003D000BCF1004F08BF5FEA500C50F1000041EB48
:1003E000045141EA050130BD5FEA4C0C404141EB4C
:1003F0000101013C28BFB1F5801FE9D291F0000F47
:1004000004BF01460020B1FA81F308BF2033A3F1F5
:100410000B03B3F120020CDA0C3208DD02F1140CEC
:10042000C2F10C0201FA0CF021FA02F10CE002F127
:100430001402D8BFC2F1200C01FA02F120FA0CFC20
:10044000DCBF41EA0C019040E41AA2BF01EB045169
:10045000294330BD6FEA04041F3C1CDA0C340EDC67
:1004600004F11404C4F1200220FA04F001FA02F3AA
:1004700040EA030021FA04F345EA030130BDC4F168
:100480000C04C4F1200220FA02F001FA04F340EA5D
:100490000300294630BD21FA04F0294630BD94F00E
:1004A000000F83F4801306BF81F480110134013DF5
:1004B0004EE77FEA645C18BF7FEA655C29D094EA66
:1004C000050F08BF90EA020F05D054EA000C04BFE4
:1004D0001946104630BD91EA030F1EBF00210020CF
:1004E00030BD5FEA545C05D14000494128BF41F06E
:1004F000004130BD14F580043CBF01F5801130BDD2
:1005000001F0004545F0FE4141F470014FF000005C
:1005100030BD7FEA645C1ABF194610467FEA655C0D
:100520001CBF0B46024650EA013406BF52EA0335AF
:1005300091EA030F41F4002130BD00BF90F0000F9D
:1005400004BF0021704730B54FF4806404F13204D9
:100550004FF000054FF0000150E700BF90F0000F92
:1005600004BF0021704730B54FF4806404F13204B9
:1005700010F0004548BF40424FF000013EE700BF89
:1005800042004FEAE2014FEA31014FEA02701FBF19
:1005900012F07F4393F07F4F81F06051704732F04B
:1005A0007F4208BF704793F07F4F04BF41F40021A2
:1005B000704730B54FF4607401F0004521F0004100
:1005C0001CE700BF50EA010208BF704730B54FF08A
:1005D00000050AE050EA010208BF704730B511F08B
:1005E000004502D5404261EB41014FF4806404F1C3
:1005F00032045FEA915C3FF4D8AE4FF003025FEA49
:10060000DC0C18BF03325FEADC0C18BF033202EBCC
:10061000DC02C2F1200300FA03FC20FA02F001FA26
:1006200003FE40EA0E0021FA02F11444BDE600BFC9
:1006300070B54FF0FF0C4CF4E06C1CEA11541DBF78
:100640001CEA135594EA0C0F95EA0C0F00F0DEF843
:100650002C4481EA030621EA4C5123EA4C5350EA28
:10066000013518BF52EA033541F4801143F4801379
:1006700038D0A0FB02CE4FF00005E1FB02E506F00A
:100680000042E0FB03E54FF00006E1FB03569CF05F
:10069000000F18BF4EF0010EA4F1FF04B6F5007F65
:1006A00064F5407404D25FEA4E0E6D4146EB0606D7
:1006B00042EAC62141EA55514FEAC52040EA5E5060
:1006C0004FEACE2EB4F1FD0C88BFBCF5E06F1ED80A
:1006D000BEF1004F08BF5FEA500E50F1000041EB41
:1006E000045170BD06F0004646EA010140EA0200EE
:1006F00081EA0301B4EB5C04C2BFD4EB0C0541EA10
:10070000045170BD41F480114FF0000E013C00F324
:10071000AB8014F1360FDEBF002001F0004170BD48
:10072000C4F10004203C35DA0C341BDC04F1140461
:10073000C4F1200500FA05F320FA04F001FA05F2ED
:1007400040EA020001F0004221F0004110EBD370BA
:1007500021FA04F642EB06015EEA430E08BF20EAE6
:10076000D37070BDC4F10C04C4F1200500FA04F389
:1007700020FA05F001FA04F240EA020001F000411B
:1007800010EBD37041F100015EEA430E08BF20EA8E
:10079000D37070BDC4F1200500FA05F24EEA020ED6
:1007A00020FA04F301FA05F243EA020321FA04F005
:1007B00001F0004121FA04F220EA020000EBD370BC
:1007C0005EEA430E08BF20EAD37070BD94F0000FBC
:1007D0000FD101F00046400041EB010111F4801FF0
:1007E00008BF013CF7D041EA060195F0000F18BFA1
:1007F000704703F00046520043EB030313F4801FDD
:1008000008BF013DF7D043EA0603704794EA0C0F96
:100810000CEA135518BF95EA0C0F0CD050EA4106AC
:1008200018BF52EA4306D1D181EA030101F0004129
:100830004FF0000070BD50EA410606BF1046194651
:1008400052EA430619D094EA0C0F02D150EA01365D
:1008500013D195EA0C0F05D152EA03361CBF10469E
:1008600019460AD181EA030101F0004141F0FE413D
:1008700041F470014FF0000070BD41F0FE4141F4C1
:10088000780170BD70B54FF0FF0C4CF4E06C1CEAC1
:1008900011541DBF1CEA135594EA0C0F95EA0C0F76
:1008A00000F0A7F8A4EB050481EA030E52EA033531
:1008B0004FEA013100F088804FEA03334FF0805552
:1008C00045EA131343EA12634FEA022245EA11157F
:1008D00045EA10654FEA00260EF000419D4208BF30
:1008E000964244F1FD0404F5407402D25B084FEADD
:1008F0003202B61A65EB03055B084FEA32024FF489
:1009000080104FF4002CB6EB020E75EB030E22BFE5
:10091000B61A754640EA0C005B084FEA3202B6EBA5
:10092000020E75EB030E22BFB61A754640EA5C0054
:100930005B084FEA3202B6EB020E75EB030E22BFE4
:10094000B61A754640EA9C005B084FEA3202B6EBE5
:10095000020E75EB030E22BFB61A754640EADC00A4
:1009600055EA060E18D04FEA051545EA16754FEA06
:1009700006164FEAC30343EA52734FEAC2025FEA24
:100980001C1CC0D111F4801F0BD141EA00014FF0B3
:1009900000004FF0004CB6E711F4801F04BF014384
:1009A0000020B4F1FD0C88BFBCF5E06F3FF6AFAEA0
:1009B000B5EB030C04BFB6EB020C5FEA500C50F130
:1009C000000041EB045170BD0EF0004E4EEA1131B3
:1009D00014EB5C04C2BFD4EB0C0541EA045170BDBA
:1009E00041F480114FF0000E013C90E645EA060EFE
:1009F0008DE60CEA135594EA0C0F08BF95EA0C0F2C
:100A00003FF43BAF94EA0C0F0AD150EA01347FF473
:100A100034AF95EA0C0F7FF425AF104619462CE74A
:100A200095EA0C0F06D152EA03353FF4FDAE1046AD
:100A3000194622E750EA410618BF52EA43067FF4FE
:100A4000C5AE50EA41047FF40DAF52EA43057FF48E
:100A5000EBAE12E74FEA4102B2F1E04324BFB3F537
:100A6000001CDCF1FE5C0DD901F0004C4FEAC00225
:100A70004CEA5070B2F1004F40EB830008BF20F009
:100A80000100704711F0804F21D113F13872BCBFC3
:100A900001F00040704741F480114FEA5252C2F118
:100AA0001802C2F1200C10FA0CF320FA02F018BF61
:100AB00040F001004FEAC1234FEAD32303FA0CFCB4
:100AC00040EA0C0023FA02F34FEA4303CCE77FEA43
:100AD000625307D150EA01331EBF4FF0FE4040F48D
:100AE0004000704701F0004040F0FE4040F400003C
:100AF000704700BF80F0004002E000BF81F000417D
:100B000042001FBF5FEA410392EA030F7FEA226CB3
:100B10007FEA236C6AD04FEA1262D2EB1363C1BF43
:100B2000D218414048404140B8BF5B42192B88BFB2
:100B3000704710F0004F40F4000020F07F4018BFD5
:100B4000404211F0004F41F4000121F07F4118BFF5
:100B5000494292EA030F3FD0A2F1010241FA03FC9D
:100B600010EB0C00C3F1200301FA03F100F0004385
:100B700002D5494260EB4000B0F5000F13D3B0F14D
:100B8000807F06D340084FEA310102F10102FE2ABC
:100B900051D2B1F1004F40EBC25008BF20F001002C
:100BA00040EA03007047490040EB0000013A28BFCB
:100BB000B0F5000FEDD2B0FA80FCACF1080CB2EB4E
:100BC0000C0200FA0CF0AABF00EBC25052421843CC
:100BD000BCBFD0401843704792F0000F81F4000171
:100BE00006BF80F400000132013BB5E74FEA410344
:100BF0007FEA226C18BF7FEA236C21D092EA030FB0
:100C000004D092F0000F08BF0846704790EA010F29
:100C10001CBF0020704712F07F4F04D1400028BF56
:100C200040F00040704712F100723CBF00F5000038
:100C3000704700F0004343F0FE4040F4000070476E
:100C40007FEA226216BF08467FEA2363014642021A
:100C500006BF5FEA412390EA010F40F4800070472D
:100C60004FF0000304E000BF10F0004348BF4042D3
:100C70005FEA000C08BF704743F0964301464FF00F
:100C800000001CE050EA010208BF70474FF000036B
:100C90000AE000BF50EA010208BF704711F00043AC
:100CA00002D5404261EB41015FEA010C02BF84467C
:100CB0000146002043F0B64308BFA3F18053A3F5DB
:100CC0000003BCFA8CF2083AA3EBC25310DB01FA22
:100CD00002FC634400FA02FCC2F12002BCF1004FA6
:100CE00020FA02F243EB020008BF20F00100704737
:100CF00002F1200201FA02FCC2F1200250EA4C008B
:100D000021FA02F243EB020008BF20EADC707047D0
:100D10004FF0FF3C06E000BF4FF0010C02E000BFC7
:100D20004FF0010C4DF804CD4FEA40024FEA410369
:100D30007FEA226C18BF7FEA236C11D001B052EA1F
:100D4000530C18BF90EA010F58BFB2EB030088BFE5
:100D5000C81738BF6FEAE17018BF40F00100704754
:100D60007FEA226C02D15FEA402C05D17FEA236C36
:100D7000E4D15FEA412CE1D05DF8040B704700BF7D
:100D8000844608466146FFE70FB5FFF7C9FF002814
:100D900048BF10F1000F0FBD4DF808EDFFF7F4FF4D
:100DA0000CBF012000205DF808FB00BF4DF808EDE6
:100DB000FFF7EAFF34BF012000205DF808FB00BF09
:100DC0004DF808EDFFF7E0FF94BF012000205DF82B
:100DD00008FB00BF4DF808EDFFF7D2FF94BF0120DC
:100DE00000205DF808FB00BF4DF808EDFFF7C8FFD5
:100DF00034BF012000205DF808FB00BF42000ED286
:100E0000B2F1FE4F0BD34FF09E03B3EB126209D445
:100E10004FEA002343F0004323FA02F070474FF0FB
:100E20000000704712F1610F01D1420202D14FF070
:100E3000FF3070474FF00000704700BF0000000017
:100E400080B582B000AF78607868FFF799FB18A38F
:100E5000D3E90023FFF7ECFB02460B461046194688
:100E6000FFF7F8FD0346144AD360134B4FF07E5250
:100E70005A617868FFF784FB0DA3D3E90023FFF7DD
:100E8000D7FB02460B46104619464FF000020B4BAB
:100E9000FFF7CEFB02460B4610461946FFF7DAFD78
:100EA0000346054A1362002318460837BD4680BD35
:100EB000B81E85EB51B81440280000200080764011
:100EC00080B500AF0D4B1B685B6B002B06D10B4B45
:100ED0001B685B6B002B01D100230CE0002107484D
:100EE00001F0A6FE0421054801F0A2FE044B4FF0DC
:100EF00000029A600123184680BD00BF78000020E0
:100F00002800002080B483B000AF78607B68632B3A
:100F100001D964237B60104B1B78012B08D10F4B48
:100F20001B687A685A630D4B1B6800229A630BE0BA
:100F3000094B1B78022B07D1084B1B6800225A6310
:100F4000064B1B687A689A63034A7B68536000BF4C
:100F50000C37BD4680BC7047280000207800002078
:100F600080B483B000AF0346FB71044AFB79137071
:100F700000BF0C37BD4680BC704700BF2800002072
:100F800080B500AF1F4801F0A9FD1F4B1F4ADA6270
:100F90001D4B01221A70062000F08BFF4FF47A706F
:100FA00000F03EFE1A48FFF74BFF0120FFF7D8FF85
:100FB000184B1B680A225A63134B0A225A60FFF728
:100FC0007FFF642000F02CFE062000F064FF012269
:100FD0000421114801F023F9642000F021FE0122D0
:100FE00008210D4801F01BF9642000F019FE0122D0
:100FF0001021094801F013F9642000F011FE00BF30
:10100000E5E700BF0801002028000020CDCC4C3DC2
:1010100000002041780000200008014080B500AFAA
:1010200001224FF40051324801F0F9F8642000F039
:10103000F7FD01224FF400412D4801F0F0F8642043
:1010400000F0EEFD01224FF48041294801F0E7F85D
:10105000642000F0E5FD01220421264801F0DFF8BC
:10106000642000F0DDFD01220821224801F0D7F8BC
:10107000642000F0D5FD012210211E4801F0CFF8B8
:10108000642000F0CDFD00224FF40051184801F01B
:10109000C6F8642000F0C4FD00224FF4004114485B
:1010A00001F0BDF8642000F0BBFD00224FF4804148
:1010B0000F4801F0B4F8642000F0B2FD00220421D2
:1010C0000C4801F0ACF8642000F0AAFD00220821D1
:1010D000084801F0A4F8642000F0A2FD00221021CD
:1010E000044801F09CF8642000F09AFD00BF97E7E7
:1010F000001001400008014080B582B000AF0346F7
:10110000FB80FB88402B48D0FB88012B45D18021F8
:10111000244801F06DF80346012B3ED1224B5B6C55
:10112000214AD361204BDA691F4B9B699A4220D92F
:101130001D4BDA691C4B9B69D31A3C2B19D91A4BEE
:10114000DA69194B9B69D31A1846FFF7F7F94FF084
:101150000002164BFFF76CFA02460B461046194682
:10116000FFF778FC0346104A13610F4BDB690E4A08
:1011700093610D4B9B684FF07E511846FFF7C0FC02
:1011800003461A46084B9A60094B01225A61012214
:101190004FF40051074801F042F800BF0837BD4640
:1011A00080BD00BF0008014028000020000024404E
:1011B0000004014000100140B0B582B000AF78607B
:1011C0007B685B4A934240F0AB805A4B9B6C632B2D
:1011D00040F29C80574B9B684FF000011846FFF788
:1011E00003FE0346002B00F09180524B9B69002BBD
:1011F00000F08C804F4B9B681846FFF7C1F94FF009
:1012000000024D4BFFF714FA02460B4610461946F2
:101210004FF00002484BFFF70BFA02460B46104610
:1012200019464FF00002454BFFF702FA02460B4603
:1012300014461D463F4B1B691846FFF7A1F93AA318
:10124000D3E90023FFF73EF802460B462046294625
:10125000FFF718FB02460B4610461946FFF7FAFB4C
:101260000346344A5362334B1B6A324A526A114670
:101270001846FFF743FC03461A462E4B9A622D4B45
:10128000DB6A2C4A926A11461846FEF761FF034654
:101290001A46284B9A63274B5B681846FFF7E0FC19
:1012A0000246244B9B6B19461046FFF729FC034668
:1012B0001A46234B1A60224B1B6822491846FFF737
:1012C00089FD0346002B03D01D4B1E4A1A6010E017
:1012D0001B4B1B681C491846FFF772FD0346002B89
:1012E00003D0174B184A1A6003E0154B1B68144AC9
:1012F0001360134B1B681846FFF780FD0346184622
:10130000FFF700FE0B4B4FF000029A60094B5B6C3D
:101310000133084A5364074B9B6C0133054A9364BD
:1013200000BF0837BD46B0BD48AFBC9AF2D77A3E81
:10133000080100202800002000408F4000003240BB
:10134000740000200000C8420000404080B500AF9B
:1013500000F004FC00F00EF800F098F900F050F8EE
:1013600000F048F900F0F8F8FFF70AFEFFF756FE24
:1013700000BFFDE780B590B000AF07F11803282249
:101380000021184602F05FFB3B1D00221A605A60E4
:101390009A60DA601A610123BB614FF48033FB610C
:1013A00000233B620123BB6202237B634FF4803343
:1013B000BB634FF4E013FB6307F11803184600F01A
:1013C0005FFF0346002B01D000F028FA0F237B605B
:1013D0000223BB600023FB604FF480633B6100236A
:1013E0007B613B1D0221184601F0CCF90346002B1E
:1013F00001D000F013FA00BF4037BD4680BD0000A9
:1014000080B596B000AF07F1480300221A605A6019
:101410009A60DA6007F1400300221A605A6007F10F
:10142000240300221A605A609A60DA601A615A61D5
:101430009A613B1D20220021184602F004FB444B18
:10144000444A1A60424B47225A60414B00229A603C
:101450003F4B6322DA603E4B00221A613C4B002274
:101460005A613B4B00229A61394801F0E7FA034682
:10147000002B01D000F0D2F94FF48053BB6407F188
:1014800048031946324801F08DFE0346002B01D077
:1014900000F0C4F92E4801F073FB0346002B01D085
:1014A00000F0BCF900233B6400237B6407F1400398
:1014B0001946274802F006FA0346002B01D000F037
:1014C000ADF960237B620023BB620023FB62002333
:1014D0003B6300237B630023BB630023FB6307F1B3
:1014E0002403002219461A4801F09AFD0346002BF6
:1014F00001D000F093F907F124030422194614489F
:1015000001F08EFD0346002B01D000F087F9002387
:101510007B600023BB600023FB6000233B61002352
:101520007B614FF40053BB6100233B623B1D1946B6
:10153000074802F025FA0346002B01D000F06EF9AF
:10154000034800F019FA00BF5837BD4680BD00BF00
:1015500078000020002C014080B586B000AF07F174
:10156000080300221A605A609A60DA603B46002243
:101570001A605A601D4B1E4A1A601C4B40F2CF2263
:101580005A601A4B00229A60184B6322DA60174B9C
:1015900000221A61154B00229A61144801F04EFA9C
:1015A0000346002B01D000F039F94FF48053BB60A3
:1015B00007F1080319460D4801F0F4FD0346002B1E
:1015C00001D000F02BF900233B6000237B603B46F9
:1015D0001946064802F076F90346002B01D000F0C8
:1015E0001DF900BF1837BD4680BD00BFC0000020F8
:1015F0000004004080B586B000AF07F10803002268
:101600001A605A609A60DA603B4600221A605A609B
:101610001C4B1D4A1A601B4B47225A60194B002273
:101620009A60184B0922DA60164B00221A61154B9A
:1016300000229A61134801F001FA0346002B01D001
:1016400000F0ECF84FF48053BB6007F10803194633
:101650000C4801F0A7FD0346002B01D000F0DEF896
:1016600000233B6000237B603B461946054802F09F
:1016700029F90346002B01D000F0D0F800BF18373D
:10168000BD4680BD080100200008004080B588B03C
:1016900000AF07F1100300221A605A609A60DA6006
:1016A000584B9B69574A43F010039361554B9B6914
:1016B00003F01003FB60FB68524B9B69514A43F0F7
:1016C000200393614F4B9B6903F02003BB60BB6811
:1016D0004C4B9B694B4A43F004039361494B9B6914
:1016E00003F004037B607B68464B9B69454A43F0EB
:1016F00008039361434B9B6903F008033B603B681D
:1017000000224FF46041404800F089FD00223C2156
:101710003E4800F084FD4FF460433B6101237B6150
:101720000023BB610223FB6107F110031946364811
:1017300000F0DAFB3C233B6101237B610023BB61AA
:101740000223FB6107F110031946304800F0CCFB7F
:1017500040233B612E4B7B610223BB6107F11003E9
:1017600019462A4800F0C0FB80233B6100237B61BF
:101770000223BB6107F110031946244800F0B4FBB3
:1017800001233B61234B7B610223BB6107F1100303
:101790001946214800F0A8FB06233B6100237B612A
:1017A0000023BB6107F1100319461B4800F09CFBA6
:1017B0004FF47C433B61164B7B610223BB6107F115
:1017C00010031946144800F08FFB00220021062068
:1017D00000F045FB062000F05EFB002200211720F0
:1017E00000F03DFB172000F056FB002200212820CE
:1017F00000F035FB282000F04EFB00BF2037BD462F
:1018000080BD00BF001002400010014000080140F0
:101810000000211000001110000C014080B400AF46
:1018200072B600BF00BFFDE780B485B000AF154BB6
:101830009B69144A43F001039361124B9B6903F0C7
:101840000103BB60BB680F4BDB690E4A43F080535A
:10185000D3610C4BDB6903F080537B607B680A4BE0
:101860005B68FB60FB6823F0E063FB60FB6843F0B0
:101870000073FB60044AFB68536000BF1437BD4629
:1018800080BC7047001002400000014080B586B067
:1018900000AF78607B681B68334A93422CD1334B8E
:1018A0009B69324A43F400639361304B9B6903F4B4
:1018B00000637B617B6900220021182000F0CFFAD1
:1018C000182000F0E8FA00220021192000F0C7FAE1
:1018D000192000F0E0FA002200211A2000F0BFFADF
:1018E0001A2000F0D8FA002200211B2000F0B7FADD
:1018F0001B2000F0D0FA32E07B681B681C4A934240
:1019000014D11A4BDB69194A43F00203D361174B18
:10191000DB6903F002033B613B69002200211D20CB
:1019200000F09DFA1D2000F0B6FA18E07B681B68F5
:10193000104A934213D10D4BDB690C4A43F0040368
:10194000D3610A4BDB6903F00403FB60FB680022F0
:1019500001211E2000F083FA1E2000F09CFA00BF37
:101960001837BD4680BD00BF002C0140001002406A
:10197000000400400008004080B588B000AF7860E7
:1019800007F1100300221A605A609A60DA607B68DF
:101990001B68104A934218D10F4B9B690E4A43F0C3
:1019A000040393610C4B9B6903F00403FB60FB6829
:1019B0004FF440733B6102237B610223FB6107F11B
:1019C00010031946054800F08FFA00BF2037BD46C6
:1019D00080BD00BF002C0140001002400008014003
:1019E00080B400AF00BFFDE780B400AF00BFFDE7EB
:1019F00080B400AF00BFFDE780B400AF00BFFDE7DB
:101A000080B400AF00BFFDE780B400AF00BFBD46AB
:101A100080BC704780B400AF00BFBD4680BC70473B
:101A200080B400AF00BFBD4680BC704780B500AF3A
:101A300000F0DAF800BF80BD80B500AF012000F0F3
:101A400007FC00BF80BD80B500AF402000F000FC67
:101A500000BF80BD80B500AF024801F0D9F900BFDA
:101A600080BD00BF7800002080B500AF024801F0C3
:101A7000CFF900BF80BD00BF7800002080B500AF67
:101A8000024801F0C5F900BF80BD00BF780000200A
:101A900080B500AF024801F0BBF900BF80BD00BFB8
:101AA0007800002080B500AF024801F0B1F900BF16
:101AB00080BD00BFC000002080B500AF024801F02B
:101AC000A7F900BF80BD00BF0801002080B500AFAE
:101AD0004FF4806000F0BCFB4FF4006000F0B8FBF6
:101AE0004FF4805000F0B4FB4FF4005000F0B0FB16
:101AF0004FF4804000F0ACFB4FF4004000F0A8FB36
:101B000000BF80BD80B400AF00BFBD4680BC704741
:101B1000FFF7F8FF0B480C490C4A002302E0D458A9
:101B2000C4500433C4188C42F9D3094A094C002329
:101B300001E013600432A242FBD301F08DFFFFF7F6
:101B400005FC7047000000200C000020E43A00086B
:101B50000C00002054010020FEE7000080B500AF1B
:101B6000084B1B68074A43F010031360032000F082
:101B70006BF90F2000F008F8FFF756FE0023184617
:101B800080BD00BF0020024080B582B000AF786009
:101B9000124B1A68124B1B7819464FF47A73B3FB39
:101BA000F1F3B2FBF3F3184600F091F90346002B72
:101BB00001D001230EE07B680F2B0AD80022796840
:101BC0004FF0FF3000F04BF9064A7B6813600023AA
:101BD00000E0012318460837BD4680BD0000002004
:101BE000080000200400002080B400AF054B1B78E3
:101BF0001A46054B1B681344034A136000BFBD46D9
:101C000080BC7047080000205001002080B400AF65
:101C1000024B1B681846BD4680BC7047500100202F
:101C200080B584B000AF7860FFF7F0FFB8607B68E4
:101C3000FB60FB68B3F1FF3F05D00A4B1B781A46E7
:101C4000FB681344FB6000BFFFF7E0FF0246BB6880
:101C5000D31AFA689A42F7D800BF00BF1037BD46C2
:101C600080BD00BF0800002080B485B000AF786060
:101C70007B6803F00703FB600C4BDB68BB60BA6852
:101C80004FF6FF031340BB60FB681A02BB681343A7
:101C900043F0BF6343F40033BB60044ABB68D360C6
:101CA00000BF1437BD4680BC704700BF00ED00E0A8
:101CB00080B400AF044BDB681B0A03F0070318462F
:101CC000BD4680BC704700BF00ED00E080B483B02B
:101CD00000AF0346FB7197F90730002B0BDBFB7954
:101CE00003F01F02064997F907305B09012000FA4B
:101CF00002F241F8232000BF0C37BD4680BC70477C
:101D000000E100E080B483B000AF0346FB7197F9B7
:101D10000730002B12DBFB7903F01F020A4997F909
:101D200007305B09012000FA02F2203341F823203A
:101D3000BFF34F8F00BFBFF36F8F00BF00BF0C37E3
:101D4000BD4680BC704700BF00E100E080B483B0B6
:101D500000AF03463960FB7197F90730002B0ADBAF
:101D60003B68DAB20C4997F907301201D2B20B4442
:101D700083F800230AE03B68DAB20849FB7903F0F4
:101D80000F03043B1201D2B20B441A7600BF0C378A
:101D9000BD4680BC704700BF00E100E000ED00E000
:101DA00080B489B000AFF860B9607A60FB6803F076
:101DB0000703FB61FB69C3F10703042B28BF04235E
:101DC000BB61FB690433062B02D9FB69033B00E0CE
:101DD00000237B614FF0FF32BB6902FA03F3DA4361
:101DE000BB681A407B699A404FF0FF317B6901FA6A
:101DF00003F3D9437B680B40134318462437BD4691
:101E000080BC704780B582B000AF78607B68013BD2
:101E1000B3F1807F01D301230FE00A4A7B68013BC5
:101E200053600F214FF0FF30FFF790FF054B00226A
:101E30009A60044B07221A60002318460837BD46F3
:101E400080BD00BF10E000E080B582B000AF7860D8
:101E50007868FFF709FF00BF0837BD4680BD80B531
:101E600086B000AF0346B9607A60FB7300237B61E4
:101E7000FFF71EFF78617A68B9687869FFF790FF0D
:101E8000024697F90F3011461846FFF75FFF00BF73
:101E90001837BD4680BD80B582B000AF0346FB71E8
:101EA00097F907301846FFF711FF00BF0837BD4606
:101EB00080BD80B582B000AF0346FB7197F9073053
:101EC0001846FFF71FFF00BF0837BD4680BD80B52D
:101ED00082B000AF78607868FFF794FF0346184639
:101EE0000837BD4680BD000080B48BB000AF78607D
:101EF000396000237B6200233B6269E101227B6A37
:101F000002FA03F3FB613B681B68FA691340BB618B
:101F1000BA69FB699A4240F058813B685B689A4A0B
:101F200093425ED0984A934275D8984A934258D0CB
:101F3000964A93426FD8964A934252D0944A93421B
:101F400069D8944A93424CD0924A934263D8924AB9
:101F5000934246D0904A93425DD8122B2AD8122B36
:101F600059D801A252F823F0E31F0008BD1F000852
:101F7000CF1F0008112000081720000817200008B4
:101F80001720000817200008172000081720000855
:101F90001720000817200008172000081720000845
:101FA000172000081720000817200008C51F000888
:101FB000D91F0008794A934213D02CE03B68DB68B4
:101FC0003B6229E03B68DB6804333B6224E03B680A
:101FD000DB6808333B621FE03B68DB680C333B6225
:101FE0001AE03B689B68002B02D104233B6213E09C
:101FF0003B689B68012B05D108233B627B68FA692B
:102000001A6109E008233B627B68FA695A6103E0C0
:1020100000233B6200E000BFBB69FF2B01D87B6857
:1020200001E07B6804337B61BB69FF2B02D87B6ACC
:102030009B0002E07B6A083B9B003B617B691A685E
:102040000F213B6901FA03F3DB431A40396A3B690C
:1020500001FA03F31A437B691A603B685B6803F07B
:102060008053002B00F0B1804D4B9B694C4A43F0EC
:10207000010393614A4B9B6903F00103BB60BB689A
:10208000484A7B6A9B08023352F82330FB607B6A24
:1020900003F003039B000F2202FA03F3DB43FA6809
:1020A0001340FB607B68404A934213D07B683F4AF1
:1020B00093420DD07B683E4A934207D07B683D4AED
:1020C000934201D1032306E0042304E0022302E04B
:1020D000012300E000237A6A02F003029200934099
:1020E000FA681343FB602F497B6A9B080233FA6846
:1020F00041F823203B685B6803F48013002B06D073
:102100002D4B9A682C49BB6913438B6006E02A4B20
:102110009A68BB69DB43284913408B603B685B6866
:1021200003F40013002B06D0234BDA682249BB6965
:102130001343CB6006E0204BDA68BB69DB431E49E2
:102140001340CB603B685B6803F40033002B06D080
:10215000194B5A681849BB6913434B6006E0164B8C
:102160005A68BB69DB43144913404B603B685B68AA
:1021700003F48033002B21D00F4B1A680E49BB6942
:1021800013430B6021E000BF00003210000031104B
:102190000000221000002110000012100000111099
:1021A000001002400000014000080140000C014006
:1021B0000010014000140140000401400B4B1A685C
:1021C000BB69DB43094913400B607B6A01337B62C7
:1021D0003B681A687B6A22FA03F3002B7FF48EAE09
:1021E00000BF00BF2C37BD4680BC704700040140D3
:1021F00080B485B000AF78600B467B807B689A68BE
:102200007B881340002B02D00123FB7301E00023E5
:10221000FB73FB7B18461437BD4680BC704780B407
:1022200083B000AF78600B467B8013467B707B7871
:10223000002B03D07A887B681A6103E07B881A043C
:102240007B681A6100BF0C37BD4680BC7047000038
:1022500080B582B000AF0346FB80084B5A69FB880B
:102260001340002B06D0054AFB885361FB881846B3
:10227000FEF742FF00BF0837BD4680BD00040140A5
:1022800080B586B000AF78607B68002B01D1012358
:1022900072E27B681B6803F00103002B00F087806B
:1022A000924B5B6803F00C03042B0CD08F4B5B68E4
:1022B00003F00C03082B12D18C4B5B6803F48033C2
:1022C000B3F5803F0BD1894B1B6803F40033002B1F
:1022D0006CD07B685B68002B68D101234CE27B6883
:1022E0005B68B3F5803F06D1804B1B687F4A43F49F
:1022F000803313602EE07B685B68002B0CD17B4B36
:102300001B687A4A23F480331360784B1B68774A42
:1023100023F4802313601DE07B685B68B3F5A02F76
:102320000CD1724B1B68714A43F4802313606F4BCE
:102330001B686E4A43F4803313600BE06B4B1B68E1
:102340006A4A23F480331360684B1B68674A23F49E
:10235000802313607B685B68002B13D0FFF756FC6B
:10236000386108E0FFF752FC02463B69D31A642B40
:1023700001D9032300E25D4B1B6803F40033002BFB
:10238000F0D014E0FFF742FC386108E0FFF73EFCB4
:1023900002463B69D31A642B01D90323ECE1534B6A
:1023A0001B6803F40033002BF0D100E000BF7B6812
:1023B0001B6803F00203002B63D04C4B5B6803F0F7
:1023C0000C03002B0BD0494B5B6803F00C03082B6C
:1023D0001CD1464B5B6803F48033002B16D1434B72
:1023E0001B6803F00203002B05D07B681B69012BDF
:1023F00001D00123C0E13D4B1B6823F0F8027B684C
:102400005B69DB00394913430B603AE07B681B6969
:10241000002B20D0364B01221A60FFF7F7FB386102
:1024200008E0FFF7F3FB02463B69D31A022B01D900
:102430000323A1E12D4B1B6803F00203002BF0D016
:102440002A4B1B6823F0F8027B685B69DB00274995
:1024500013430B6015E0264B00221A60FFF7D6FBF2
:10246000386108E0FFF7D2FB02463B69D31A022B22
:1024700001D9032380E11D4B1B6803F00203002BED
:10248000F0D17B681B6803F00803002B3AD07B680F
:102490009B69002B19D0174B01221A60FFF7B6FB7E
:1024A000386108E0FFF7B2FB02463B69D31A022B02
:1024B00001D9032360E10D4B5B6A03F00203002B9B
:1024C000F0D0012000F09CFA1CE00A4B00221A60B8
:1024D000FFF79CFB38610FE0FFF798FB02463B6972
:1024E000D31A022B08D9032346E100BF0010024093
:1024F0000000424280044242924B5B6A03F00203B6
:10250000002BE9D17B681B6803F00403002B00F06B
:10251000A6800023FB758B4BDB6903F08053002BF7
:102520000DD1884BDB69874A43F08053D361854BDB
:10253000DB6903F08053BB60BB680123FB75824BF2
:102540001B6803F48073002B18D17F4B1B687E4AF5
:1025500043F480731360FFF759FB386108E0FFF71D
:1025600055FB02463B69D31A642B01D9032303E1CF
:10257000754B1B6803F48073002BF0D07B68DB681D
:10258000012B06D16F4B1B6A6E4A43F001031362A5
:102590002DE07B68DB68002B0CD16A4B1B6A694A13
:1025A00023F001031362674B1B6A664A23F004039E
:1025B00013621CE07B68DB68052B0CD1614B1B6A46
:1025C000604A43F0040313625E4B1B6A5D4A43F0AA
:1025D000010313620BE05B4B1B6A5A4A23F00103B1
:1025E0001362584B1B6A574A23F0040313627B683B
:1025F000DB68002B15D0FFF709FB38610AE0FFF715
:1026000005FB02463B69D31A41F28832934201D955
:102610000323B1E04B4B1B6A03F00203002BEED007
:1026200014E0FFF7F3FA38610AE0FFF7EFFA024629
:102630003B69D31A41F28832934201D903239BE0CC
:10264000404B1B6A03F00203002BEED1FB7D012BF4
:1026500005D13C4BDB693B4A23F08053D3617B6857
:10266000DB69002B00F08780364B5B6803F00C03BE
:10267000082B61D07B68DB69022B46D1334B0022EB
:102680001A60FFF7C3FA386108E0FFF7BFFA0246A5
:102690003B69D31A022B01D903236DE0294B1B6838
:1026A00003F00073002BF0D17B681B6AB3F5803F09
:1026B00008D1244B5B6823F400327B689B68214976
:1026C00013434B601F4B5B6823F474127B68196AD9
:1026D0007B685B6A0B431B4913434B601B4B012216
:1026E0001A60FFF793FA386108E0FFF78FFA0246A5
:1026F0003B69D31A022B01D903233DE0114B1B6820
:1027000003F00073002BF0D035E0104B00221A606C
:10271000FFF77CFA386108E0FFF778FA02463B6978
:10272000D31A022B01D9032326E0064B1B6803F0C2
:102730000073002BF0D11EE07B68DB69012B07D111
:10274000012319E000100240007000406000424286
:102750000B4B5B68FB60FB6803F480327B681B6A91
:102760009A4206D1FB6803F470127B685B6A9A4256
:1027700001D0012300E0002318461837BD4680BD74
:102780000010024080B584B000AF786039607B688B
:10279000002B01D10123D0E06A4B1B6803F0070333
:1027A0003A689A4210D9674B1B6823F007026549C3
:1027B0003B6813430B60634B1B6803F007033A68E5
:1027C0009A4201D00123B8E07B681B6803F0020342
:1027D000002B20D07B681B6803F00403002B05D07E
:1027E000594B5B68584A43F4E06353607B681B684D
:1027F00003F00803002B05D0534B5B68524A43F4A7
:1028000060535360504B5B6823F0F0027B689B6819
:102810004D4913434B607B681B6803F00103002B99
:1028200040D07B685B68012B07D1474B1B6803F4E2
:102830000033002B15D101237FE07B685B68022BFE
:1028400007D1414B1B6803F00073002B09D1012312
:1028500073E03D4B1B6803F00203002B01D1012301
:102860006BE0394B5B6823F003027B685B68364999
:1028700013434B60FFF7CAF9F8600AE0FFF7C6F9A7
:102880000246FB68D31A41F28832934201D90323EE
:1028900053E02D4B5B6803F00C027B685B689B0088
:1028A0009A42EBD1274B1B6803F007033A689A4220
:1028B00010D2244B1B6823F0070222493B681343C4
:1028C0000B60204B1B6803F007033A689A4201D063
:1028D000012332E07B681B6803F00403002B08D05F
:1028E000194B5B6823F4E0627B68DB68164913438D
:1028F0004B607B681B6803F00803002B09D0124B68
:102900005B6823F460527B681B69DB000E4913434C
:102910004B6000F021F802460B4B5B681B0903F08B
:102920000F030A49CB5C22FA03F3094A1360094BEF
:102930001B681846FFF728F9002318461037BD46D4
:1029400080BD00BF0020024000100240B83A0008DD
:10295000000000200400002080B487B000AF0023F6
:10296000FB600023BB6000237B6100237B600023AE
:102970003B611E4B5B68FB60FB6803F00C03042BA0
:1029800002D0082B03D027E0194B3B6127E0FB68FE
:102990009B0C03F00F03174AD35C7B60FB6803F4C6
:1029A0008033002B10D0114B5B685B0C03F00103EC
:1029B000114AD35CBB607B680D4A03FB02F2BB6823
:1029C000B2FBF3F37B6104E07B680C4A02FB03F388
:1029D0007B617B693B6102E0054B3B6100BF3B696A
:1029E00018461C37BD4680BC704700BF001002402F
:1029F00000127A00C83A0008D83A000800093D00E1
:102A000080B485B000AF78600A4B1B680A4AA2FB0D
:102A100003235B0A7A6802FB03F3FB6000BFFB68D9
:102A20005A1EFA60002BF9D100BF00BF1437BD4613
:102A300080BC704700000020D34D621080B582B08A
:102A400000AF78607B68002B01D1012341E07B68F7
:102A500093F83D30DBB2002B06D17B68002283F86F
:102A60003C207868FEF712FF7B68022283F83D2045
:102A70007B681A687B6804331946104600F07EFCB8
:102A80007B68012283F846207B68012283F83E2080
:102A90007B68012283F83F207B68012283F8402075
:102AA0007B68012283F841207B68012283F8422061
:102AB0007B68012283F843207B68012283F844204D
:102AC0007B68012283F845207B68012283F83D2042
:102AD000002318460837BD4680BD000080B485B08D
:102AE00000AF78607B6893F83D30DBB2012B01D0FA
:102AF00001233AE07B68022283F83D207B681B6853
:102B0000DA687B681B6842F00102DA607B681B6848
:102B1000184A93420ED07B681B68B3F1804F09D0EE
:102B20007B681B68144A934204D07B681B68134A75
:102B3000934211D17B681B689B6803F00703FB601D
:102B4000FB68062B10D07B681B681A687B681B68C3
:102B500042F001021A6007E07B681B681A687B6814
:102B60001B6842F001021A60002318461437BD4664
:102B700080BC7047002C0140000400400008004069
:102B800080B582B000AF78607B68002B01D1012353
:102B900041E07B6893F83D30DBB2002B06D17B68C7
:102BA000002283F83C20786800F039F87B68022224
:102BB00083F83D207B681A687B6804331946104609
:102BC00000F0DCFB7B68012283F846207B68012251
:102BD00083F83E207B68012283F83F207B68012236
:102BE00083F840207B68012283F841207B68012222
:102BF00083F842207B68012283F843207B6801220E
:102C000083F844207B68012283F845207B680122F9
:102C100083F83D20002318460837BD4680BD80B4A8
:102C200083B000AF786000BF0C37BD4680BC7047F2
:102C300080B584B000AF786039600023FB733B68D7
:102C4000002B09D17B6893F83E30DBB2012B14BF17
:102C500001230023DBB222E03B68042B09D17B680F
:102C600093F83F30DBB2012B14BF01230023DBB20A
:102C700015E03B68082B09D17B6893F84030DBB244
:102C8000012B14BF01230023DBB208E07B6893F81B
:102C90004130DBB2012B14BF01230023DBB2002B38
:102CA00001D00123A9E03B68002B04D17B680222FC
:102CB00083F83E2013E03B68042B04D17B6802229A
:102CC00083F83F200BE03B68082B04D17B6802228D
:102CD00083F8402003E07B68022283F841203B68B0
:102CE0000C2B41D801A252F823F000BF212D00087F
:102CF000692D0008692D0008692D0008332D000892
:102D0000692D0008692D0008692D0008452D00086F
:102D1000692D0008692D0008692D0008572D00084D
:102D20007B681B68DA687B681B6842F00202DA6025
:102D30001DE07B681B68DA687B681B6842F0040250
:102D4000DA6014E07B681B68DA687B681B6842F015
:102D50000802DA600BE07B681B68DA687B681B6836
:102D600042F01002DA6002E00123FB7300BFFB7B3C
:102D7000002B41D17B681B6801223968184600F09E
:102D80007DFD7B681B681F4A934207D17B681B68E7
:102D90005A6C7B681B6842F400425A647B681B686B
:102DA000184A93420ED07B681B68B3F1804F09D05C
:102DB0007B681B68144A934204D07B681B68134AE3
:102DC000934211D17B681B689B6803F00703BB60CB
:102DD000BB68062B10D07B681B681A687B681B6871
:102DE00042F001021A6007E07B681B681A687B6882
:102DF0001B6842F001021A60FB7B18461037BD4683
:102E000080BD00BF002C01400004004000080040CD
:102E100080B582B000AF78607B681B681B6903F0E7
:102E20000203022B22D17B681B68DB6803F00203DC
:102E3000022B1BD17B681B686FF002021A617B6852
:102E400001221A777B681B689B6903F00303002B40
:102E500003D0786800F076FA05E0786800F069FA47
:102E6000786800F078FA7B6800221A777B681B6824
:102E70001B6903F00403042B22D17B681B68DB6809
:102E800003F00403042B1BD17B681B686FF0040262
:102E90001A617B6802221A777B681B689B6903F4BE
:102EA0004073002B03D0786800F04CFA05E0786896
:102EB00000F03FFA786800F04EFA7B6800221A773B
:102EC0007B681B681B6903F00803082B22D17B6811
:102ED0001B68DB6803F00803082B1BD17B681B68A9
:102EE0006FF008021A617B6804221A777B681B68FE
:102EF000DB6903F00303002B03D0786800F022FAAB
:102F000005E0786800F015FA786800F024FA7B682C
:102F100000221A777B681B681B6903F01003102BD3
:102F200022D17B681B68DB6803F01003102B1BD1D8
:102F30007B681B686FF010021A617B6808221A77A1
:102F40007B681B68DB6903F44073002B03D078684F
:102F500000F0F8F905E0786800F0EBF9786800F027
:102F6000FAF97B6800221A777B681B681B6903F0FB
:102F70000103012B0ED17B681B68DB6803F00103A2
:102F8000012B07D17B681B686FF001021A6178681A
:102F9000FEF712F97B681B681B6903F08003802B26
:102FA0000ED17B681B68DB6803F08003802B07D1A0
:102FB0007B681B686FF080021A61786800F03AFD48
:102FC0007B681B681B6903F04003402B0ED17B68B4
:102FD0001B68DB6803F04003402B07D17B681B684C
:102FE0006FF040021A61786800F0BEF97B681B68D8
:102FF0001B6903F02003202B0ED17B681B68DB6864
:1030000003F02003202B07D17B681B686FF02002A0
:103010001A61786800F005FD00BF0837BD4680BD25
:1030200080B586B000AFF860B9607A600023FB75A8
:10303000FB6893F83C30012B01D10223AEE0FB6822
:10304000012283F83C207B680C2B00F29F8001A2B8
:1030500052F823F0893000088D3100088D310008C6
:103060008D310008C93000088D3100088D3100080D
:103070008D3100080B3100088D3100088D310008BA
:103080008D3100084B310008FB681B68B968184691
:1030900000F0D6F9FB681B689A69FB681B6842F070
:1030A00008029A61FB681B689A69FB681B6822F03A
:1030B00004029A61FB681B689969BB681A69FB681E
:1030C0001B680A439A6164E0FB681B68B96818468C
:1030D00000F01CFAFB681B689A69FB681B6842F4E5
:1030E00000629A61FB681B689A69FB681B6822F49E
:1030F00080629A61FB681B689969BB681B691A0248
:10310000FB681B680A439A6143E0FB681B68B96867
:10311000184600F065FAFB681B68DA69FB681B68F3
:1031200042F00802DA61FB681B68DA69FB681B6819
:1031300022F00402DA61FB681B68D969BB681A696E
:10314000FB681B680A43DA6123E0FB681B68B96807
:10315000184600F0AFFAFB681B68DA69FB681B6869
:1031600042F40062DA61FB681B68DA69FB681B687D
:1031700022F48062DA61FB681B68D969BB681B694D
:103180001A02FB681B680A43DA6102E00123FB753F
:1031900000BFFB68002283F83C20FB7D18461837EF
:1031A000BD4680BD80B584B000AF78603960002333
:1031B000FB737B6893F83C30012B01D10223B4E010
:1031C0007B68012283F83C207B68022283F83D2043
:1031D0007B681B689B68BB60BB6823F07703BB60A0
:1031E000BB6823F47F43BB607B681B68BA689A6046
:1031F0003B681B68B3F5005F3ED0B3F5005F00F29B
:103200008780B3F5805F00F08680B3F5805F7FD85C
:10321000702B1AD0702B7BD8602B50D0602B77D8B6
:10322000502B3CD0502B73D8402B58D0402B6FD80C
:10323000302B64D0302B6BD8202B60D0202B67D85C
:10324000002B5CD0102B5AD062E07B6818683B687A
:1032500099683B685A683B68DB6800F0F0FA7B6865
:103260001B689B68BB60BB6843F07703BB607B68EF
:103270001B68BA689A604FE07B6818683B68996879
:103280003B685A683B68DB6800F0D9FA7B681B68CA
:103290009A687B681B6842F480429A603CE07B68D5
:1032A00018683B6859683B68DB681A4600F050FABA
:1032B0007B681B685021184600F0A7FA2CE07B6859
:1032C00018683B6859683B68DB681A4600F06EFA7C
:1032D0007B681B686021184600F097FA1CE07B6849
:1032E00018683B6859683B68DB681A4600F030FA9A
:1032F0007B681B684021184600F087FA0CE07B6869
:103300001A683B681B681946104600F07EFA03E015
:103310000123FB7300E000BF7B68012283F83D209E
:103320007B68002283F83C20FB7B18461037BD46A3
:1033300080BD80B483B000AF786000BF0C37BD465D
:1033400080BC704780B483B000AF786000BF0C379A
:10335000BD4680BC704780B483B000AF786000BFCA
:103360000C37BD4680BC704780B483B000AF786036
:1033700000BF0C37BD4680BC7047000080B485B0EC
:1033800000AF786039607B681B68FB607B68294A06
:1033900093420BD07B68B3F1804F07D07B68264AFD
:1033A000934203D07B68254A934208D1FB6823F0FF
:1033B0007003FB603B685B68FA681343FB607B68E3
:1033C0001C4A93420BD07B68B3F1804F07D07B68D7
:1033D000194A934203D07B68184A934208D1FB688C
:1033E00023F44073FB603B68DB68FA681343FB60BF
:1033F000FB6823F080023B685B691343FB607B68DA
:10340000FA681A603B689A687B68DA623B681A68F7
:103410007B689A627B68074A934203D13B681A69CA
:103420007B681A637B6801225A6100BF1437BD466E
:1034300080BC7047002C01400004004000080040A0
:1034400080B487B000AF786039607B681B6A7B61AD
:103450007B681B6A23F001027B681A627B685B68E9
:103460003B617B689B69FB60FB6823F07003FB603A
:10347000FB6823F00303FB603B681B68FA68134397
:10348000FB607B6923F002037B613B689B687A6980
:1034900013437B617B681C4A93420CD17B6923F008
:1034A00008037B613B68DB687A6913437B617B6956
:1034B00023F004037B617B68134A934211D13B697B
:1034C00023F480733B613B6923F400733B613B68E9
:1034D0005B693A6913433B613B689B693A691343F3
:1034E0003B617B683A695A607B68FA689A613B681D
:1034F0005A687B685A637B687A691A6200BF1C3716
:10350000BD4680BC704700BF002C014080B487B02E
:1035100000AF786039607B681B6A7B617B681B6ADF
:1035200023F010027B681A627B685B683B617B68F2
:103530009B69FB60FB6823F4E043FB60FB6823F4BA
:103540004073FB603B681B681B02FA681343FB6017
:103550007B6923F020037B613B689B681B017A69D0
:1035600013437B617B681D4A93420DD17B6923F035
:1035700080037B613B68DB681B017A6913437B61D5
:103580007B6923F040037B617B68144A934213D12B
:103590003B6923F480633B613B6923F400633B6137
:1035A0003B685B699B003A6913433B613B689B69DD
:1035B0009B003A6913433B617B683A695A607B68B8
:1035C000FA689A613B685A687B689A637B687A6993
:1035D0001A6200BF1C37BD4680BC7047002C0140FA
:1035E00080B487B000AF786039607B681B6A7B610C
:1035F0007B681B6A23F480727B681A627B685B6855
:103600003B617B68DB69FB60FB6823F07003FB6058
:10361000FB6823F00303FB603B681B68FA681343F5
:10362000FB607B6923F400737B613B689B681B0232
:103630007A6913437B617B681D4A93420DD17B6994
:1036400023F400637B613B68DB681B027A691343E8
:103650007B617B6923F480637B617B68144A9342BE
:1036600013D13B6923F480533B613B6923F400533E
:103670003B613B685B691B013A6913433B613B68F3
:103680009B691B013A6913433B617B683A695A6045
:103690007B68FA68DA613B685A687B68DA637B6842
:1036A0007A691A6200BF1C37BD4680BC704700BFF4
:1036B000002C014080B487B000AF786039607B682F
:1036C0001B6A3B617B681B6A23F480527B681A6229
:1036D0007B685B687B617B68DB69FB60FB6823F46C
:1036E000E043FB60FB6823F44073FB603B681B68AE
:1036F0001B02FA681343FB603B6923F400533B61F0
:103700003B689B681B033A6913433B617B680F4A24
:10371000934209D17B6923F480437B613B685B69F9
:103720009B017A6913437B617B687A695A607B6885
:10373000FA68DA613B685A687B681A647B683A69A0
:103740001A6200BF1C37BD4680BC7047002C014088
:1037500080B487B000AFF860B9607A60FB681B6A1C
:103760007B61FB681B6A23F00102FB681A62FB683D
:103770009B693B613B6923F0F0033B617B681B0164
:103780003A6913433B617B6923F00A037B617A69E1
:10379000BB6813437B61FB683A699A61FB687A698D
:1037A0001A6200BF1C37BD4680BC704780B487B02A
:1037B00000AFF860B9607A60FB681B6A7B61FB68E8
:1037C0001B6A23F01002FB681A62FB689B693B616D
:1037D0003B6923F470433B617B681B033A691343E5
:1037E0003B617B6923F0A0037B61BB681B017A69A5
:1037F00013437B61FB683A699A61FB687A691A62D4
:1038000000BF1C37BD4680BC704780B485B000AF98
:10381000786039607B689B68FB60FB6823F070030D
:10382000FB603A68FB68134343F00703FB607B6867
:10383000FA689A6000BF1437BD4680BC704780B4F8
:1038400087B000AFF860B9607A603B60FB689B6846
:103850007B617B6923F47F437B613B681A027B6851
:103860001A43BB6813437A6913437B61FB687A6927
:103870009A6000BF1C37BD4680BC704780B487B0DB
:1038800000AFF860B9607A60BB6803F01F030122E3
:1038900002FA03F37B61FB681A6A7B69DB431A4017
:1038A000FB681A62FB681A6ABB6803F01F03796839
:1038B00001FA03F31A43FB681A6200BF1C37BD46C6
:1038C00080BC704780B485B000AF786039607B6899
:1038D00093F83C30012B01D1022346E07B680122A2
:1038E00083F83C207B68022283F83D207B681B68BC
:1038F0005B68FB607B681B689B68BB60FB6823F0B0
:103900007003FB603B681B68FA681343FB607B68CD
:103910001B68FA685A607B681B68164A93420ED08F
:103920007B681B68B3F1804F09D07B681B68124A23
:10393000934204D07B681B68104A93420CD1BB6849
:1039400023F08003BB603B685B68BA681343BB60CD
:103950007B681B68BA689A607B68012283F83D2007
:103960007B68002283F83C20002318461437BD46AC
:1039700080BC7047002C014000040040000800405B
:1039800080B485B000AF786039600023FB607B684D
:1039900093F83C30012B01D102233DE07B680122EA
:1039A00083F83C20FB6823F0FF023B68DB6813438D
:1039B000FB60FB6823F440723B689B681343FB6029
:1039C000FB6823F480623B685B681343FB60FB6821
:1039D00023F400623B681B681343FB60FB6823F41D
:1039E00080523B681B691343FB60FB6823F4005261
:1039F0003B685B691343FB60FB6823F480423B68D0
:103A0000DB691343FB607B681B68FA685A647B6858
:103A1000002283F83C20002318461437BD4680BCA2
:103A2000704780B483B000AF786000BF0C37BD46EC
:103A300080BC704780B483B000AF786000BF0C37A3
:103A4000BD4680BC704703460244934200D1704794
:103A500003F8011BF9E7000070B500260C4D0D4C72
:103A6000641BA410A64209D100F01AF800260A4DE2
:103A70000A4C641BA410A64205D170BD55F8043B46
:103A800098470136EEE755F8043B98470136F2E7D0
:103A9000DC3A0008DC3A0008DC3A0008E03A0008AA
:103AA000F8B500BFF8BC08BC9E467047F8B500BF2B
:083AB000F8BC08BC9E467047FB
:103AB80000000000000000000102030406070809D6
:103AC80002030405060708090A0B0C0D0E0F101057
:043AD80001020000E7
:043ADC0035010008A8
:043AE00011010008C8
:0C3AE4000024F4001000000001000000AD
:0400000508001B11C3
:00000001FF
