:020000040800F2
:1000000000500020950E00084D0D0008550D000809
:100010005D0D0008650D00086D0D00080000000072
:10002000000000000000000000000000750D000846
:10003000810D0008000000008D0D0008990D0008DA
:10004000DD0E0008DD0E0008DD0E0008DD0E0008E4
:10005000DD0E0008DD0E0008A50D0008DD0E00080D
:10006000DD0E0008DD0E0008DD0E0008DD0E0008C4
:10007000DD0E0008DD0E0008DD0E0008DD0E0008B4
:10008000DD0E0008DD0E0008B50D0008DD0E0008CD
:10009000DD0E0008DD0E0008DD0E0008C90D0008A9
:1000A000D90D0008ED0D0008010E0008150E00081E
:1000B000DD0E0008290E00083D0E0008DD0E0008C8
:1000C000DD0E0008DD0E0008DD0E0008DD0E000864
:1000D000DD0E0008DD0E0008DD0E0008DD0E000854
:1000E000510E0008DD0E0008DD0E000800000000C3
:1000F0000000000000000000000000000000000000
:0C01000000000000000000005FF808F1A3
:10010C0010B5054C237833B9044B13B10448AFF345
:10011C0000800123237010BD0C00002000000000A3
:10012C00DC32000808B5034B1BB103490348AFF39D
:10013C00008008BD0000000010000020DC32000828
:10014C0080F0004002E000BF81F0004142001FBF80
:10015C005FEA410392EA030F7FEA226C7FEA236C89
:10016C006AD04FEA1262D2EB1363C1BFD21841407E
:10017C0048404140B8BF5B42192B88BF704710F014
:10018C00004F40F4000020F07F4018BF404211F0B7
:10019C00004F41F4000121F07F4118BF494292EA1F
:1001AC00030F3FD0A2F1010241FA03FC10EB0C004B
:1001BC00C3F1200301FA03F100F0004302D54942D8
:1001CC0060EB4000B0F5000F13D3B0F1807F06D385
:1001DC0040084FEA310102F10102FE2A51D2B1F17D
:1001EC00004F40EBC25008BF20F0010040EA030072
:1001FC007047490040EB0000013A28BFB0F5000FF2
:10020C00EDD2B0FA80FCACF1080CB2EB0C0200FAA7
:10021C000CF0AABF00EBC25052421843BCBFD040F6
:10022C001843704792F0000F81F4000106BF80F470
:10023C0000000132013BB5E74FEA41037FEA226C33
:10024C0018BF7FEA236C21D092EA030F04D092F0FE
:10025C00000F08BF0846704790EA010F1CBF002032
:10026C00704712F07F4F04D1400028BF40F000408F
:10027C00704712F100723CBF00F50000704700F0AF
:10028C00004343F0FE4040F4000070477FEA2262D6
:10029C0016BF08467FEA23630146420206BF5FEAA7
:1002AC00412390EA010F40F4800070474FF00003A7
:1002BC0004E000BF10F0004348BF40425FEA000C6E
:1002CC0008BF704743F0964301464FF000001CE016
:1002DC0050EA010208BF70474FF000030AE000BF6C
:1002EC0050EA010208BF704711F0004302D54042AA
:1002FC0061EB41015FEA010C02BF8446014600201C
:10030C0043F0B64308BFA3F18053A3F50003BCFA36
:10031C008CF2083AA3EBC25310DB01FA02FC6344E3
:10032C0000FA02FCC2F12002BCF1004F20FA02F2EA
:10033C0043EB020008BF20F00100704702F12002DD
:10034C0001FA02FCC2F1200250EA4C0021FA02F23E
:10035C0043EB020008BF20EADC70704742000ED26B
:10036C00B2F1FE4F0BD34FF09E03B3EB126209D4E4
:10037C004FEA002343F0004323FA02F070474FF09A
:10038C000000704712F1610F01D1420202D14FF00F
:10039C00FF3070474FF00000704700BF80B483B04F
:1003AC0000AF78607B68632B01D964237B60104BB2
:1003BC001B78012B08D10F4B1B687A685A630D4BC5
:1003CC001B6800229A630BE0094B1B78022B07D1A8
:1003DC00084B1B6800225A63064B1B687A689A63A9
:1003EC00034A7B68536000BF0C37BD4680BC704726
:1003FC00580000209000002080B500AF054802F0A6
:10040C0099F8054B01221A704FF47A7000F0C4FD74
:10041C0000BF80BD200100205800002080B500AF37
:10042C0001224FF40051324801F06FFB642000F0C0
:10043C00B3FD01224FF400412D4801F066FB64200E
:10044C0000F0AAFD01224FF48041294801F05DFB28
:10045C00642000F0A1FD01220421264801F055FB87
:10046C00642000F099FD01220821224801F04DFB87
:10047C00642000F091FD012210211E4801F045FB83
:10048C00642000F089FD00224FF40051184801F05F
:10049C003CFB642000F080FD00224FF40041144826
:1004AC0001F033FB642000F077FD00224FF4804113
:1004BC000F4801F02AFB642000F06EFD002204219D
:1004CC000C4801F022FB642000F066FD002208219C
:1004DC00084801F01AFB642000F05EFD0022102198
:1004EC00044801F012FB642000F056FD00BF97E7B2
:1004FC00001001400008014080B582B000AF0346F7
:10050C00FB80FB88402B21D0FB88012B1ED1802146
:10051C00104801F0E3FA0346012B17D10E4B5B6830
:10052C001846FFF7C3FE02460C4B1B6919461046D2
:10053C00FFF70CFE03461846FFF710FF034618465C
:10054C00FFF72CFF064BDB68054A936000BF0837AA
:10055C00BD4680BD00080140580000203C00002032
:10056C002800002080B483B000AF78607B68064A16
:10057C00934204D1054B1B680133044A136000BF3E
:10058C000C37BD4680BC704720010020280000209D
:10059C0080B500AF00F09EFC00F010F800F0F0F910
:1005AC0000F068F800F0A4F800F09CF900F04CF9A9
:1005BC00FFF722FFFFF732FF00BFFDE780B594B0D5
:1005CC0000AF07F1280328220021184602F053FE41
:1005DC0007F1140300221A605A609A60DA601A61FB
:1005EC003B1D00221A605A609A60DA600123BB62DC
:1005FC004FF48033FB6200233B630123BB63022374
:10060C007B644FF48033BB644FF4E013FB6407F15D
:10061C002803184601F0AAFA0346002B01D000F07B
:10062C0069FA0F237B610223BB610023FB614FF44A
:10063C0080633B6200237B6207F11403022118469E
:10064C0001F016FD0346002B01D000F053FA0223F3
:10065C007B604FF40043FB603B1D184601F064FEC9
:10066C000346002B01D000F045FA00BF5037BD46C1
:10067C0080BD000080B584B000AF3B1D00221A6025
:10068C005A609A60184B194A1A60174B00229A60EC
:10069C00154B00221A73144B00221A75124B4FF48F
:1006AC006022DA61104B00225A600F4B01221A6152
:1006BC000D4800F095FC0346002B01D000F01AFA0F
:1006CC0000237B600123BB600023FB603B1D1946AC
:1006DC00054800F02FFE0346002B01D000F00AFA6B
:1006EC0000BF1037BD4680BD6000002000240140D3
:1006FC0080B596B000AF07F1480300221A605A602B
:10070C009A60DA6007F1400300221A605A6007F120
:10071C00240300221A605A609A60DA601A615A61E6
:10072C009A613B1D20220021184602F0A4FD444B87
:10073C00444A1A60424B47225A60414B00229A604D
:10074C003F4B6322DA603E4B00221A613C4B002285
:10075C005A613B4B00229A61394801F09BFE0346DB
:10076C00002B01D000F0C6F94FF48053BB6407F1A5
:10077C0048031946324802F051F90346002B01D0C8
:10078C0000F0B8F92E4801F027FF0346002B01D0EA
:10079C0000F0B0F900233B6400237B6407F14003B5
:1007AC001946274802F0A6FC0346002B01D000F0A6
:1007BC00A1F960237B620023BB620023FB62002350
:1007CC003B6300237B630023BB630023FB6307F1C4
:1007DC002403002219461A4802F05EF80346002B47
:1007EC0001D000F087F907F12403042219461448BC
:1007FC0002F052F80346002B01D000F07BF90023E5
:10080C007B600023BB600023FB6000233B61002363
:10081C007B614FF40053BB6100233B623B1D1946C7
:10082C00074802F0C5FC0346002B01D000F062F92A
:10083C00034800F051FA00BF5837BD4680BD00BFD9
:10084C0090000020002C014080B586B000AF07F16D
:10085C00080300221A605A609A60DA603B46002254
:10086C001A605A601D4B1E4A1A601C4B40F2CF2274
:10087C005A601A4B00229A60184B6322DA60174BAD
:10088C0000221A61154B00229A61144801F002FEF5
:10089C000346002B01D000F02DF94FF48053BB60C0
:1008AC0007F1080319460D4802F0B8F80346002B6F
:1008BC0001D000F01FF900233B6000237B603B4616
:1008CC001946064802F016FC0346002B01D000F036
:1008DC0011F900BF1837BD4680BD00BFD8000020FD
:1008EC000004004080B586B000AF07F10803002279
:1008FC001A605A609A60DA603B4600221A605A60AD
:10090C001D4B1E4A1A601C4B40F2CF225A601A4BE8
:10091C0000229A60184B6322DA60174B00221A618E
:10092C00154B00229A61144801F0B4FD0346002BCC
:10093C0001D000F0DFF84FF48053BB6007F10803DF
:10094C0019460D4802F06AF80346002B01D000F05E
:10095C00D1F800233B6000237B603B4619460648D8
:10096C0002F0C8FB0346002B01D000F0C3F800BF17
:10097C001837BD4680BD00BF200100200008004094
:10098C0080B588B000AF07F1100300221A605A60DE
:10099C009A60DA60524B9B69514A43F010039361A1
:1009AC004F4B9B6903F01003FB60FB684C4B9B693E
:1009BC004B4A43F020039361494B9B6903F020039E
:1009CC00BB60BB68464B9B69454A43F0040393618B
:1009DC00434B9B6903F004037B607B68404B9B6932
:1009EC003F4A43F0080393613D4B9B6903F00803B6
:1009FC003B603B6800224FF460413A4801F085F8B7
:100A0C0000223C21384801F080F84FF460433B61F0
:100A1C0001237B610023BB610223FB6107F11003FF
:100A2C001946304800F0D6FE3C233B6101237B6124
:100A3C000023BB610223FB6107F1100319462A480E
:100A4C0000F0C8FE40233B61284B7B610223BB6155
:100A5C0007F110031946244800F0BCFE80233B61CB
:100A6C0000237B610023BB6107F1100319461E486C
:100A7C0000F0B0FE4FF601433B611C4B7B6102233F
:100A8C00BB6107F110031946194800F0A3FE0623B9
:100A9C003B6100237B610023BB6107F11003194606
:100AAC00134800F097FE00220021062000F05BFEA8
:100ABC00062000F074FE00220021172000F053FEE7
:100ACC00172000F06CFE00220021282000F04BFEC5
:100ADC00282000F064FE00BF2037BD4680BD00BF5B
:100AEC0000100240001001400008014000002110DD
:100AFC00000C014080B400AF72B600BF00BFFDE730
:100B0C0080B485B000AF154B9B69144A43F00103C8
:100B1C009361124B9B6903F00103BB60BB680F4BE5
:100B2C00DB690E4A43F08053D3610C4BDB6903F055
:100B3C0080537B607B680A4B5B68FB60FB6823F02F
:100B4C00E063FB60FB6843F00073FB60044AFB68E6
:100B5C00536000BF1437BD4680BC70470010024084
:100B6C000000014080B588B000AF786007F1100339
:100B7C0000221A605A609A60DA607B681B68184A17
:100B8C00934229D1174B9B69164A43F40073936126
:100B9C00144B9B6903F40073FB60FB68114B9B695E
:100BAC00104A43F0040393610E4B9B6903F004035A
:100BBC00BB60BB6801233B6103237B6107F110031E
:100BCC001946094800F006FE00220021122000F010
:100BDC00CAFD122000F0E3FD00BF2037BD4680BDEA
:100BEC0000240140001002400008014080B586B08E
:100BFC0000AF78607B681B68334A93422CD1334B2F
:100C0C009B69324A43F400639361304B9B6903F454
:100C1C0000637B617B6900220021182000F0A3FD9A
:100C2C00182000F0BCFD00220021192000F09BFDD3
:100C3C00192000F0B4FD002200211A2000F093FDD1
:100C4C001A2000F0ACFD002200211B2000F08BFDCF
:100C5C001B2000F0A4FD32E07B681B681C4A934209
:100C6C0014D11A4BDB69194A43F00203D361174BB9
:100C7C00DB6903F002033B613B69002200211D206C
:100C8C0000F071FD1D2000F08AFD18E07B681B68E8
:100C9C00104A934213D10D4BDB690C4A43F0040309
:100CAC00D3610A4BDB6903F00403FB60FB68002291
:100CBC0000211E2000F057FD1E2000F070FD00BF2B
:100CCC001837BD4680BD00BF002C0140001002400B
:100CDC00000400400008004080B588B000AF786088
:100CEC0007F1100300221A605A609A60DA607B6880
:100CFC001B68104A934218D10F4B9B690E4A43F064
:100D0C00040393610C4B9B6903F00403FB60FB68C9
:100D1C004FF440733B6102237B610223FB6107F1BB
:100D2C0010031946054800F055FD00BF2037BD469D
:100D3C0080BD00BF002C01400010024000080140A3
:100D4C0080B400AF00BFFDE780B400AF00BFFDE78B
:100D5C0080B400AF00BFFDE780B400AF00BFFDE77B
:100D6C0080B400AF00BFFDE780B400AF00BFBD464C
:100D7C0080BC704780B400AF00BFBD4680BC7047DC
:100D8C0080B400AF00BFBD4680BC704780B500AFDB
:100D9C0000F0E6F800BF80BD80B500AF012000F088
:100DAC00CDFE00BF80BD000080B500AF024800F052
:100DBC00EFF900BF80BD00BF6000002080B500AF20
:100DCC00402000F0BBFE00BF80BD000080B500AF2E
:100DDC00024801F059FC00BF80BD00BF900000200C
:100DEC0080B500AF024801F04FFC00BF80BD00BFD2
:100DFC009000002080B500AF024801F045FC00BF18
:100E0C0080BD00BF9000002080B500AF024801F00B
:100E1C003BFC00BF80BD00BF9000002080B500AF40
:100E2C00024801F031FC00BF80BD00BFD80000209B
:100E3C0080B500AF024801F027FC00BF80BD00BFA9
:100E4C002001002080B500AF4FF4806000F076FEEA
:100E5C004FF4006000F072FE4FF4805000F06EFE14
:100E6C004FF4005000F06AFE4FF4804000F066FE34
:100E7C004FF4004000F062FE00BF80BD80B400AFB4
:100E8C0000BFBD4680BC7047FFF7F8FF0B480C490C
:100E9C000C4A002302E0D458C4500433C4188C42CA
:100EAC00F9D3094A094C002301E013600432A24231
:100EBC00FBD302F0E9F9FFF76BFB70470000002051
:100ECC000C000020203300080C0000206C010020D6
:100EDC00FEE7000080B500AF084B1B68074A43F0E3
:100EEC0010031360032000F033FC0F2000F008F80F
:100EFC00FFF706FE0023184680BD00BF002002400D
:100F0C0080B582B000AF7860124B1A68124B1B7818
:100F1C0019464FF47A73B3FBF1F3B2FBF3F31846B3
:100F2C0000F04BFC0346002B01D001230EE07B6844
:100F3C000F2B0AD8002279684FF0FF3000F013FC19
:100F4C00064A7B681360002300E00123184608372B
:100F5C00BD4680BD000000200800002004000020D9
:100F6C0080B400AF054B1B781A46054B1B68134425
:100F7C00034A136000BFBD4680BC704708000020C8
:100F8C006801002080B400AF024B1B681846BD46B8
:100F9C0080BC70476801002080B584B000AF7860D9
:100FAC00FFF7F0FFB8607B68FB60FB68B3F1FF3FB5
:100FBC0005D00A4B1B781A46FB681344FB6000BF34
:100FCC00FFF7E0FF0246BB68D31AFA689A42F7D8DB
:100FDC0000BF00BF1037BD4680BD00BF0800002019
:100FEC0080B586B000AF78600023FB7500233B61B1
:100FFC000023BB600023FB607B68002B01D1012325
:10100C00BEE07B689B68002B7B689B6A002B09D138
:10101C007B680022DA627B68002283F824207868DF
:10102C00FFF7A0FD786800F07DFA0346FB757B683E
:10103C009B6A03F01003002B40F09980FB7D002B82
:10104C0040F095807B689B6A23F4885323F002035D
:10105C0043F002027B689A627B685A687B68DB69A2
:10106C001A437B681B7B5B001343BA681343BB605A
:10107C007B689B68B3F5807F03D07B689B68012BF2
:10108C0002D14FF4807300E000233A6913433B61B3
:10109C007B681B7D012B19D17B681B7B002B09D135
:1010AC007B689B69013B5A033B69134343F4006320
:1010BC003B610BE07B689B6A43F020027B689A6281
:1010CC007B68DB6A43F001027B68DA627B681B6831
:1010DC005B6823F469417B681B683A690A435A6070
:1010EC007B681B689A68284B13407A681268B96849
:1010FC000B4393607B689B68B3F5807F03D07B6860
:10110C009B68012B04D17B681B69013B1B05FB60B1
:10111C007B681B68DB6A23F470017B681B68FA68C8
:10112C000A43DA627B681B689A68184B1340BA68EA
:10113C009A420BD17B680022DA627B689B6A23F0AF
:10114C00030343F001027B689A6218E07B689B6A98
:10115C0023F0120343F010027B689A627B68DB6A0F
:10116C0043F001027B68DA620123FB7507E07B68C0
:10117C009B6A43F010027B689A620123FB75FB7D2E
:10118C0018461837BD4680BDFDF7E1FFFE0E1FFF68
:10119C0080B584B000AF78607B681B681B68FB600F
:1011AC007B681B685B68BB60BB6803F02003002B8B
:1011BC003ED0FB6803F00203002B39D07B689B6A9E
:1011CC0003F01003002B05D17B689B6A43F400727B
:1011DC007B689A627B681B689B6803F46023B3F599
:1011EC00602F1DD17B681B7B002B19D17B681B6882
:1011FC005A687B681B6822F020025A607B689B6AE5
:10120C0023F480727B689A627B689B6A03F4805338
:10121C00002B05D17B689B6A43F001027B689A62C4
:10122C00786800F074F87B681B686FF012021A6023
:10123C00BB6803F08003002B4DD0FB6803F0040364
:10124C00002B48D07B689B6A03F01003002B05D160
:10125C007B689B6A43F400527B689A627B681B68CC
:10126C009B6803F4E043B3F5E04F12D07B681B6836
:10127C005B6803F48063002B25D17B681B689B683B
:10128C0003F46023B3F5602F1DD17B681B7B002B0F
:10129C0019D17B681B685A687B681B6822F0800236
:1012AC005A607B689B6A23F480527B689A627B68E5
:1012BC009B6A03F48073002B05D17B689B6A43F017
:1012CC0001027B689A62786800F06DF97B681B6894
:1012DC006FF00C021A60BB6803F04003002B12D0B5
:1012EC00FB6803F00103002B0DD07B689B6A43F471
:1012FC0080327B689A62786800F012F87B681B6811
:10130C006FF001021A6000BF1037BD4680BD80B47B
:10131C0083B000AF786000BF0C37BD4680BC70470F
:10132C0080B483B000AF786000BF0C37BD4680BC82
:10133C007047000080B485B000AF7860396000233E
:10134C00FB730023BB607B6893F82430012B01D125
:10135C000223DCE07B68012283F824203B685B6875
:10136C00062B1CD87B681B68596B3B685A68134664
:10137C009B001344053B1F2202FA03F3DB43194085
:10138C003B6818683B685A6813469B001344053B3E
:10139C0000FA03F27B681B680A435A633CE03B6823
:1013AC005B680C2B1CD87B681B68196B3B685A68F4
:1013BC0013469B001344233B1F2202FA03F3DB4327
:1013CC0019403B6818683B685A6813469B001344E5
:1013DC00233B00FA03F27B681B680A431A631BE089
:1013EC007B681B68D96A3B685A6813469B00134498
:1013FC00413B1F2202FA03F3DB4319403B68186898
:10140C003B685A6813469B001344413B00FA03F2B5
:10141C007B681B680A43DA623B681B68092B1CD982
:10142C007B681B68D9683B681A6813465B001344D9
:10143C001E3B072202FA03F3DB4319403B68986812
:10144C003B681A6813465B0013441E3B00FA03F218
:10145C007B681B680A43DA6019E07B681B681969B2
:10146C003B681A6813465B001344072202FA03F325
:10147C00DB4319403B6898683B681A6813465B006D
:10148C00134400FA03F27B681B680A431A613B6839
:10149C001B68102B03D03B681B68112B32D17B6867
:1014AC001B681D4A934225D17B681B689B6803F41B
:1014BC000003002B26D17B681B689A687B681B682D
:1014CC0042F400029A603B681B68102B1AD1134B34
:1014DC001B68134AA2FB03239A0C13469B0013446C
:1014EC005B00BB6002E0BB68013BBB60BB68002BD0
:1014FC00F9D107E07B689B6A43F020027B689A6213
:10150C000123FB737B68002283F82420FB7B1846A5
:10151C001437BD4680BC70470024014000000020F9
:10152C0083DE1B4380B584B000AF78600023FB6082
:10153C007B681B689B6803F00103012B2ED17B6831
:10154C001B689A687B681B6822F001029A60FFF79F
:10155C0019FDF8601BE0FFF715FD0246FB68D31A76
:10156C00022B14D97B681B689B6803F00103012BC9
:10157C000DD17B689B6A43F010027B689A627B6892
:10158C00DB6A43F001027B68DA62012307E07B68C7
:10159C001B689B6803F00103012BDCD00023184669
:1015AC001037BD4680BD80B483B000AF786000BFFB
:1015BC000C37BD4680BC704780B485B000AF7860F6
:1015CC007B6803F00703FB600C4BDB68BB60BA68FD
:1015DC004FF6FF031340BB60FB681A02BB68134352
:1015EC0043F0BF6343F40033BB60044ABB68D36071
:1015FC0000BF1437BD4680BC704700BF00ED00E053
:10160C0080B400AF044BDB681B0A03F007031846D9
:10161C00BD4680BC704700BF00ED00E080B483B0D5
:10162C0000AF0346FB7197F90730002B0BDBFB79FE
:10163C0003F01F02064997F907305B09012000FAF5
:10164C0002F241F8232000BF0C37BD4680BC704726
:10165C0000E100E080B483B000AF03463960FB7159
:10166C0097F90730002B0ADB3B68DAB20C4997F983
:10167C0007301201D2B20B4483F800230AE03B6816
:10168C00DAB20849FB7903F00F03043B1201D2B222
:10169C000B441A7600BF0C37BD4680BC704700BFA8
:1016AC0000E100E000ED00E080B489B000AFF8602C
:1016BC00B9607A60FB6803F00703FB61FB69C3F157
:1016CC000703042B28BF0423BB61FB690433062BDF
:1016DC0002D9FB69033B00E000237B614FF0FF3232
:1016EC00BB6902FA03F3DA43BB681A407B699A4080
:1016FC004FF0FF317B6901FA03F3D9437B680B4050
:10170C00134318462437BD4680BC704780B582B061
:10171C0000AF78607B68013BB3F1807F01D301237C
:10172C000FE00A4A7B68013B53600F214FF0FF30FA
:10173C00FFF790FF054B00229A60044B07221A60BA
:10174C00002318460837BD4680BD00BF10E000E0FE
:10175C0080B582B000AF78607868FFF72DFF00BFCE
:10176C000837BD4680BD80B586B000AF0346B96072
:10177C007A60FB7300237B61FFF742FF78617A6824
:10178C00B9687869FFF790FF024697F90F30114658
:10179C001846FFF75FFF00BF1837BD4680BD80B508
:1017AC0082B000AF0346FB7197F907301846FFF77C
:1017BC0035FF00BF0837BD4680BD80B582B000AF95
:1017CC0078607868FFF7A2FF034618460837BD46D5
:1017DC0080BD000080B48BB000AF7860396000230E
:1017EC007B6200233B6269E101227B6A02FA03F30C
:1017FC00FB613B681B68FA691340BB61BA69FB6902
:10180C009A4240F058813B685B689A4A93425ED09A
:10181C00984A934275D8984A934258D0964A934224
:10182C006FD8964A934252D0944A934269D8944ABC
:10183C0093424CD0924A934263D8924A934246D0F8
:10184C00904A93425DD8122B2AD8122B59D801A258
:10185C0052F823F0DB180008B5180008C718000868
:10186C00091900080F1900080F1900080F190008B2
:10187C000F1900080F1900080F1900080F1900089C
:10188C000F1900080F1900080F1900080F1900088C
:10189C000F1900080F190008BD180008D11800080E
:1018AC00794A934213D02CE03B68DB683B6229E019
:1018BC003B68DB6804333B6224E03B68DB6808333D
:1018CC003B621FE03B68DB680C333B621AE03B6811
:1018DC009B68002B02D104233B6213E03B689B689E
:1018EC00012B05D108233B627B68FA691A6109E078
:1018FC0008233B627B68FA695A6103E000233B6270
:10190C0000E000BFBB69FF2B01D87B6801E07B685E
:10191C0004337B61BB69FF2B02D87B6A9B0002E01E
:10192C007B6A083B9B003B617B691A680F213B6912
:10193C0001FA03F3DB431A40396A3B6901FA03F3FA
:10194C001A437B691A603B685B6803F08053002B79
:10195C0000F0B1804D4B9B694C4A43F001039361FD
:10196C004A4B9B6903F00103BB60BB68484A7B6A26
:10197C009B08023352F82330FB607B6A03F00303AD
:10198C009B000F2202FA03F3DB43FA681340FB605F
:10199C007B68404A934213D07B683F4A93420DD0F8
:1019AC007B683E4A934207D07B683D4A934201D103
:1019BC00032306E0042304E0022302E0012300E0F9
:1019CC0000237A6A02F0030292009340FA681343F0
:1019DC00FB602F497B6A9B080233FA6841F823208D
:1019EC003B685B6803F48013002B06D02D4B9A6880
:1019FC002C49BB6913438B6006E02A4B9A68BB6980
:101A0C00DB43284913408B603B685B6803F400138D
:101A1C00002B06D0234BDA682249BB691343CB60F9
:101A2C0006E0204BDA68BB69DB431E491340CB60F0
:101A3C003B685B6803F40033002B06D0194B5A68E3
:101A4C001849BB6913434B6006E0164B5A68BB69D7
:101A5C00DB43144913404B603B685B6803F48033F1
:101A6C00002B21D00F4B1A680E49BB6913430B6036
:101A7C0021E000BF000032100000311000002210E5
:101A8C000000211000001210000011100010024084
:101A9C000000014000080140000C01400010014012
:101AAC0000140140000401400B4B1A68BB69DB4376
:101ABC00094913400B607B6A01337B623B681A68EF
:101ACC007B6A22FA03F3002B7FF48EAE00BF00BFBB
:101ADC002C37BD4680BC70470004014080B485B0F3
:101AEC0000AF78600B467B807B689A687B881340DC
:101AFC00002B02D00123FB7301E00023FB73FB7B63
:101B0C0018461437BD4680BC704780B483B000AF14
:101B1C0078600B467B8013467B707B78002B03D060
:101B2C007A887B681A6103E07B881A047B681A61E7
:101B3C0000BF0C37BD4680BC7047000080B582B03A
:101B4C0000AF0346FB80084B5A69FB881340002BFF
:101B5C0006D0054AFB885361FB881846FEF7CCFC7F
:101B6C0000BF0837BD4680BD0004014080B586B07B
:101B7C0000AF78607B68002B01D1012372E27B6897
:101B8C001B6803F00103002B00F08780924B5B680D
:101B9C0003F00C03042B0CD08F4B5B6803F00C038D
:101BAC00082B12D18C4B5B6803F48033B3F5803F68
:101BBC000BD1894B1B6803F40033002B6CD07B6872
:101BCC005B68002B68D101234CE27B685B68B3F542
:101BDC00803F06D1804B1B687F4A43F480331360EF
:101BEC002EE07B685B68002B0CD17B4B1B687A4A20
:101BFC0023F480331360784B1B68774A23F48023DB
:101C0C0013601DE07B685B68B3F5A02F0CD1724BA1
:101C1C001B68714A43F4802313606F4B1B686E4A38
:101C2C0043F4803313600BE06B4B1B686A4A23F45C
:101C3C0080331360684B1B68674A23F4802313605E
:101C4C007B685B68002B13D0FFF79CF9386108E0C8
:101C5C00FFF798F902463B69D31A642B01D9032389
:101C6C0000E25D4B1B6803F40033002BF0D014E052
:101C7C00FFF788F9386108E0FFF784F902463B6901
:101C8C00D31A642B01D90323ECE1534B1B6803F4E7
:101C9C000033002BF0D100E000BF7B681B6803F021
:101CAC000203002B63D04C4B5B6803F00C03002B3E
:101CBC000BD0494B5B6803F00C03082B1CD1464B33
:101CCC005B6803F48033002B16D1434B1B6803F085
:101CDC000203002B05D07B681B69012B01D001236B
:101CEC00C0E13D4B1B6823F0F8027B685B69DB00AD
:101CFC00394913430B603AE07B681B69002B20D0F9
:101D0C00364B01221A60FFF73DF9386108E0FFF706
:101D1C0039F902463B69D31A022B01D90323A1E1FD
:101D2C002D4B1B6803F00203002BF0D02A4B1B68D1
:101D3C0023F0F8027B685B69DB00274913430B60D7
:101D4C0015E0264B00221A60FFF71CF9386108E0F9
:101D5C00FFF718F902463B69D31A022B01D903236A
:101D6C0080E11D4B1B6803F00203002BF0D17B6854
:101D7C001B6803F00803002B3AD07B689B69002B8F
:101D8C0019D0174B01221A60FFF7FCF8386108E0F4
:101D9C00FFF7F8F802463B69D31A022B01D903234B
:101DAC0060E10D4B5B6A03F00203002BF0D00120C5
:101DBC0000F09CFA1CE00A4B00221A60FFF7E2F8D4
:101DCC0038610FE0FFF7DEF802463B69D31A022BAD
:101DDC0008D9032346E100BF001002400000424234
:101DEC0080044242924B5B6A03F00203002BE9D160
:101DFC007B681B6803F00403002B00F0A680002313
:101E0C00FB758B4BDB6903F08053002B0DD1884B9A
:101E1C00DB69874A43F08053D361854BDB6903F060
:101E2C008053BB60BB680123FB75824B1B6803F4BA
:101E3C008073002B18D17F4B1B687E4A43F4807350
:101E4C001360FFF79FF8386108E0FFF79BF8024634
:101E5C003B69D31A642B01D9032303E1754B1B682F
:101E6C0003F48073002BF0D07B68DB68012B06D168
:101E7C006F4B1B6A6E4A43F0010313622DE07B68C3
:101E8C00DB68002B0CD16A4B1B6A694A23F00103F7
:101E9C001362674B1B6A664A23F0040313621CE04F
:101EAC007B68DB68052B0CD1614B1B6A604A43F0E5
:101EBC00040313625E4B1B6A5D4A43F00103136219
:101ECC000BE05B4B1B6A5A4A23F001031362584B1D
:101EDC001B6A574A23F0040313627B68DB68002BF0
:101EEC0015D0FFF74FF838610AE0FFF74BF80246C0
:101EFC003B69D31A41F28832934201D90323B1E0F2
:101F0C004B4B1B6A03F00203002BEED014E0FFF7DF
:101F1C0039F838610AE0FFF735F802463B69D31A05
:101F2C0041F28832934201D903239BE0404B1B6A58
:101F3C0003F00203002BEED1FB7D012B05D13C4BB2
:101F4C00DB693B4A23F08053D3617B68DB69002B50
:101F5C0000F08780364B5B6803F00C03082B61D0D4
:101F6C007B68DB69022B46D1334B00221A60FFF7EA
:101F7C0009F8386108E0FFF705F802463B69D31A07
:101F8C00022B01D903236DE0294B1B6803F000736E
:101F9C00002BF0D17B681B6AB3F5803F08D1244B32
:101FAC005B6823F400327B689B68214913434B60C8
:101FBC001F4B5B6823F474127B68196A7B685B6A3D
:101FCC000B431B4913434B601B4B01221A60FEF75A
:101FDC00D9FF386108E0FEF7D5FF02463B69D31AFA
:101FEC00022B01D903233DE0114B1B6803F0007356
:101FFC00002BF0D035E0104B00221A60FEF7C2FF28
:10200C00386108E0FEF7BEFF02463B69D31A022B8B
:10201C0001D9032326E0064B1B6803F00073002B49
:10202C00F0D11EE07B68DB69012B07D1012319E09D
:10203C000010024000700040600042420B4B5B6895
:10204C00FB60FB6803F480327B681B6A9A4206D102
:10205C00FB6803F470127B685B6A9A4201D001231F
:10206C0000E0002318461837BD4680BD0010024022
:10207C0080B584B000AF786039607B68002B01D1EB
:10208C000123D0E06A4B1B6803F007033A689A42BD
:10209C0010D9674B1B6823F0070265493B68134353
:1020AC000B60634B1B6803F007033A689A4201D03C
:1020BC000123B8E07B681B6803F00203002B20D0DF
:1020CC007B681B6803F00403002B05D0594B5B683D
:1020DC00584A43F4E06353607B681B6803F00803C1
:1020EC00002B05D0534B5B68524A43F4605353604A
:1020FC00504B5B6823F0F0027B689B684D4913439F
:10210C004B607B681B6803F00103002B40D07B689D
:10211C005B68012B07D1474B1B6803F40033002B82
:10212C0015D101237FE07B685B68022B07D1414B03
:10213C001B6803F00073002B09D1012373E03D4BA6
:10214C001B6803F00203002B01D101236BE0394B18
:10215C005B6823F003027B685B68364913434B6072
:10216C00FEF710FFF8600AE0FEF70CFF0246FB6872
:10217C00D31A41F28832934201D9032353E02D4BF9
:10218C005B6803F00C027B685B689B009A42EBD1A6
:10219C00274B1B6803F007033A689A4210D2244B72
:1021AC001B6823F0070222493B6813430B60204B4A
:1021BC001B6803F007033A689A4201D0012332E00E
:1021CC007B681B6803F00403002B08D0194B5B6879
:1021DC0023F4E0627B68DB68164913434B607B6831
:1021EC001B6803F00803002B09D0124B5B6823F427
:1021FC0060527B681B69DB000E4913434B6000F097
:10220C0021F802460B4B5B681B0903F00F030A49CC
:10221C00CB5C22FA03F3094A1360094B1B6818467E
:10222C00FEF76EFE002318461037BD4680BD00BF7A
:10223C000020024000100240F43200080000002090
:10224C000400002080B487B000AF0023FB600023A3
:10225C00BB6000237B6100237B6000233B611E4B32
:10226C005B68FB60FB6803F00C03042B02D0082BAB
:10227C0003D027E0194B3B6127E0FB689B0C03F074
:10228C000F03174AD35C7B60FB6803F48033002B8D
:10229C0010D0114B5B685B0C03F00103114AD35C4B
:1022AC00BB607B680D4A03FB02F2BB68B2FBF3F325
:1022BC007B6104E07B680C4A02FB03F37B617B6966
:1022CC003B6102E0054B3B6100BF3B6918461C3784
:1022DC00BD4680BC704700BF0010024000127A005F
:1022EC00043300081433000800093D0080B485B0A5
:1022FC0000AF78600A4B1B680A4AA2FB03235B0AF7
:10230C007A6802FB03F3FB6000BFFB685A1EFA609D
:10231C00002BF9D100BF00BF1437BD4680BC7047FD
:10232C0000000020D34D621080B586B000AF7860FD
:10233C0000233B610023FB607B681B6803F00103F7
:10234C00002B7DD00023FB754F4BDB6903F08053D2
:10235C00002B0DD14C4BDB694B4A43F08053D361BE
:10236C00494BDB6903F08053BB60BB680123FB75F1
:10237C00464B1B6803F48073002B18D1434B1B682E
:10238C00424A43F480731360FEF7FCFD386108E0A9
:10239C00FEF7F8FD02463B69D31A642B01D90323DF
:1023AC006DE03A4B1B6803F48073002BF0D0364B76
:1023BC001B6A03F44073FB60FB68002B2ED07B6818
:1023CC005B6803F44073FA689A4227D02E4B1B6A61
:1023DC0023F44073FB602E4B01221A602C4B00221D
:1023EC001A60294AFB681362FB6803F00103002B97
:1023FC0014D0FEF7C7FD38610AE0FEF7C3FD0246B4
:10240C003B69D31A41F28832934201D9032336E057
:10241C001D4B1B6A03F00203002BEED01A4B1B6AF8
:10242C0023F440727B685B68174913430B62FB7D96
:10243C00012B05D1144BDB69134A23F08053D36174
:10244C007B681B6803F00203002B08D00E4B5B6803
:10245C0023F440427B689B680B4913434B607B68B9
:10246C001B6803F01003002B08D0074B5B6823F4A8
:10247C0080027B68DB68044913434B6000231846D9
:10248C001837BD4680BD00BF0010024000700040F0
:10249C004004424280B582B000AF78607B68002B6C
:1024AC0001D1012341E07B6893F83D30DBB2002B76
:1024BC0006D17B68002283F83C207868FEF796FBF7
:1024CC007B68022283F83D207B681A687B680433A2
:1024DC001946104600F08EFB7B68012283F84620DB
:1024EC007B68012283F83E207B68012283F83F2021
:1024FC007B68012283F840207B68012283F841200D
:10250C007B68012283F842207B68012283F84320F8
:10251C007B68012283F844207B68012283F84520E4
:10252C007B68012283F83D20002318460837BD46FE
:10253C0080BD000080B485B000AF78607B6893F8F4
:10254C003D30DBB2012B01D001233AE07B68022243
:10255C0083F83D207B681B68DA687B681B6842F057
:10256C000102DA607B681B68184A93420ED07B68C4
:10257C001B68B3F1804F09D07B681B68144A9342E7
:10258C0004D07B681B68134A934211D17B681B688B
:10259C009B6803F00703FB60FB68062B10D07B687D
:1025AC001B681A687B681B6842F001021A6007E01E
:1025BC007B681B681A687B681B6842F001021A6012
:1025CC00002318461437BD4680BC7047002C0140D0
:1025DC00000400400008004080B582B000AF786075
:1025EC007B68002B01D1012341E07B6893F83D30DF
:1025FC00DBB2002B06D17B68002283F83C20786884
:10260C0000F039F87B68022283F83D207B681A6859
:10261C007B6804331946104600F0ECFA7B68012203
:10262C0083F846207B68012283F83E207B680122D8
:10263C0083F83F207B68012283F840207B680122CD
:10264C0083F841207B68012283F842207B680122B9
:10265C0083F843207B68012283F844207B680122A5
:10266C0083F845207B68012283F83D20002318461F
:10267C000837BD4680BD80B483B000AF786000BF22
:10268C000C37BD4680BC704780B582B000AF786017
:10269C007B681B681B6903F00203022B22D17B6849
:1026AC001B68DB6803F00203022B1BD17B681B68E1
:1026BC006FF002021A617B6801221A777B681B6833
:1026CC009B6903F00303002B03D0786800F076FAC3
:1026DC0005E0786800F069FA786800F078FA7B68B1
:1026EC0000221A777B681B681B6903F00403042B18
:1026FC0022D17B681B68DB6803F00403042B1BD11D
:10270C007B681B686FF004021A617B6802221A77DF
:10271C007B681B689B6903F44073002B03D07868BB
:10272C0000F04CFA05E0786800F03FFA786800F0A9
:10273C004EFA7B6800221A777B681B681B6903F0D2
:10274C000803082B22D17B681B68DB6803F00803A5
:10275C00082B1BD17B681B686FF008021A617B6821
:10276C0004221A777B681B68DB6903F00303002BD8
:10277C0003D0786800F022FA05E0786800F015FACA
:10278C00786800F024FA7B6800221A777B681B6853
:10279C001B6903F01003102B22D17B681B68DB68CC
:1027AC0003F01003102B1BD17B681B686FF0100219
:1027BC001A617B6808221A777B681B68DB6903F453
:1027CC004073002B03D0786800F0F8F905E07868C6
:1027DC0000F0EBF9786800F0FAF97B6800221A77C0
:1027EC007B681B681B6903F00103012B0ED17B680E
:1027FC001B68DB6803F00103012B07D17B681B68A6
:10280C006FF001021A617868FDF7ACFE7B681B68FB
:10281C001B6903F08003802B0ED17B681B68DB687F
:10282C0003F08003802B07D17B681B686FF080025C
:10283C001A61786800F016FD7B681B681B6903F051
:10284C004003402B0ED17B681B68DB6803F0400310
:10285C00402B07D17B681B686FF040021A617868C7
:10286C0000F0BEF97B681B681B6903F02003202B6A
:10287C000ED17B681B68DB6803F02003202B07D18B
:10288C007B681B686FF020021A61786800F0E1FC2D
:10289C0000BF0837BD4680BD80B586B000AFF8607C
:1028AC00B9607A600023FB75FB6893F83C30012B10
:1028BC0001D10223AEE0FB68012283F83C207B6847
:1028CC000C2B00F29F8001A252F823F00D29000876
:1028DC00112A0008112A0008112A00084D290008A5
:1028EC00112A0008112A0008112A00088F29000853
:1028FC00112A0008112A0008112A0008CF29000803
:10290C00FB681B68B968184600F0D6F9FB681B68B1
:10291C009A69FB681B6842F008029A61FB681B68A5
:10292C009A69FB681B6822F004029A61FB681B68B9
:10293C009969BB681A69FB681B680A439A6164E071
:10294C00FB681B68B968184600F01CFAFB681B682A
:10295C009A69FB681B6842F400629A61FB681B6809
:10296C009A69FB681B6822F480629A61FB681B6899
:10297C009969BB681B691A02FB681B680A439A6158
:10298C0043E0FB681B68B968184600F065FAFB6801
:10299C001B68DA69FB681B6842F00802DA61FB68A5
:1029AC001B68DA69FB681B6822F00402DA61FB68B9
:1029BC001B68D969BB681A69FB681B680A43DA6132
:1029CC0023E0FB681B68B968184600F0AFFAFB6897
:1029DC001B68DA69FB681B6842F40062DA61FB6809
:1029EC001B68DA69FB681B6822F48062DA61FB6899
:1029FC001B68D969BB681B691A02FB681B680A4310
:102A0C00DA6102E00123FB7500BFFB68002283F84A
:102A1C003C20FB7D18461837BD4680BD80B584B080
:102A2C0000AF786039600023FB737B6893F83C300F
:102A3C00012B01D10223B4E07B68012283F83C20F6
:102A4C007B68022283F83D207B681B689B68BB6017
:102A5C00BB6823F07703BB60BB6823F47F43BB6088
:102A6C007B681B68BA689A603B681B68B3F5005FAB
:102A7C003ED0B3F5005F00F28780B3F5805F00F0C5
:102A8C008680B3F5805F7FD8702B1AD0702B7BD8E3
:102A9C00602B50D0602B77D8502B3CD0502B73D858
:102AAC00402B58D0402B6FD8302B64D0302B6BD8A8
:102ABC00202B60D0202B67D8002B5CD0102B5AD049
:102ACC0062E07B6818683B6899683B685A683B68A9
:102ADC00DB6800F0F0FA7B681B689B68BB60BB6826
:102AEC0043F07703BB607B681B68BA689A604FE061
:102AFC007B6818683B6899683B685A683B68DB6878
:102B0C0000F0D9FA7B681B689A687B681B6842F4F2
:102B1C0080429A603CE07B6818683B6859683B6867
:102B2C00DB681A4600F050FA7B681B685021184687
:102B3C0000F0A7FA2CE07B6818683B6859683B6882
:102B4C00DB681A4600F06EFA7B681B686021184639
:102B5C0000F097FA1CE07B6818683B6859683B6882
:102B6C00DB681A4600F030FA7B681B684021184677
:102B7C0000F087FA0CE07B681A683B681B68194602
:102B8C00104600F07EFA03E00123FB7300E000BF67
:102B9C007B68012283F83D207B68002283F83C206F
:102BAC00FB7B18461037BD4680BD80B483B000AFA8
:102BBC00786000BF0C37BD4680BC704780B483B0D2
:102BCC0000AF786000BF0C37BD4680BC704780B446
:102BDC0083B000AF786000BF0C37BD4680BC704737
:102BEC0080B483B000AF786000BF0C37BD4680BCAA
:102BFC007047000080B485B000AF786039607B68A6
:102C0C001B68FB607B68294A93420BD07B68B3F14D
:102C1C00804F07D07B68264A934203D07B68254AB5
:102C2C00934208D1FB6823F07003FB603B685B6840
:102C3C00FA681343FB607B681C4A93420BD07B6899
:102C4C00B3F1804F07D07B68194A934203D07B685D
:102C5C00184A934208D1FB6823F44073FB603B682D
:102C6C00DB68FA681343FB60FB6823F080023B6867
:102C7C005B691343FB607B68FA681A603B689A686F
:102C8C007B68DA623B681A687B689A627B68074AE1
:102C9C00934203D13B681A697B681A637B680122F3
:102CAC005A6100BF1437BD4680BC7047002C0140F0
:102CBC00000400400008004080B487B000AF78608A
:102CCC0039607B681B6A7B617B681B6A23F001029D
:102CDC007B681A627B685B683B617B689B69FB6005
:102CEC00FB6823F07003FB60FB6823F00303FB60BD
:102CFC003B681B68FA681343FB607B6923F0020393
:102D0C007B613B689B687A6913437B617B681C4AD7
:102D1C0093420CD17B6923F008037B613B68DB6831
:102D2C007A6913437B617B6923F004037B617B68C5
:102D3C00134A934211D13B6923F480733B613B6985
:102D4C0023F400733B613B685B693A6913433B6155
:102D5C003B689B693A6913433B617B683A695A60EB
:102D6C007B68FA689A613B685A687B685A637B682F
:102D7C007A691A6200BF1C37BD4680BC704700BF21
:102D8C00002C014080B487B000AF786039607B685C
:102D9C001B6A7B617B681B6A23F010027B681A62DA
:102DAC007B685B683B617B689B69FB60FB6823F419
:102DBC00E043FB60FB6823F44073FB603B681B68DB
:102DCC001B02FA681343FB607B6923F020037B61D1
:102DDC003B689B681B017A6913437B617B681D4AC6
:102DEC0093420DD17B6923F080037B613B68DB68E8
:102DFC001B017A6913437B617B6923F040037B6180
:102E0C007B68144A934213D13B6923F480633B6182
:102E1C003B6923F400633B613B685B699B003A6947
:102E2C0013433B613B689B699B003A6913433B61CD
:102E3C007B683A695A607B68FA689A613B685A68A1
:102E4C007B689A637B687A691A6200BF1C37BD463F
:102E5C0080BC7047002C014080B487B000AF786014
:102E6C0039607B681B6A7B617B681B6A23F4807208
:102E7C007B681A627B685B683B617B68DB69FB6023
:102E8C00FB6823F07003FB60FB6823F00303FB601B
:102E9C003B681B68FA681343FB607B6923F400737F
:102EAC007B613B689B681B027A6913437B617B687F
:102EBC001D4A93420DD17B6923F400637B613B680F
:102ECC00DB681B027A6913437B617B6923F48063A3
:102EDC007B617B68144A934213D13B6923F4805382
:102EEC003B613B6923F400533B613B685B691B010D
:102EFC003A6913433B613B689B691B013A69134375
:102F0C003B617B683A695A607B68FA68DA613B68B6
:102F1C005A687B68DA637B687A691A6200BF1C376F
:102F2C00BD4680BC704700BF002C014080B487B008
:102F3C0000AF786039607B681B6A3B617B681B6AF9
:102F4C0023F480527B681A627B685B687B617B68C8
:102F5C00DB69FB60FB6823F4E043FB60FB6823F454
:102F6C004073FB603B681B681B02FA681343FB60F1
:102F7C003B6923F400533B613B689B681B033A6934
:102F8C0013433B617B680F4A934209D17B6923F45D
:102F9C0080437B613B685B699B017A6913437B616E
:102FAC007B687A695A607B68FA68DA613B685A68B0
:102FBC007B681A647B683A691A6200BF1C37BD468D
:102FCC0080BC7047002C014080B487B000AFF86023
:102FDC00B9607A60FB681B6A7B61FB681B6A23F033
:102FEC000102FB681A62FB689B693B613B6923F039
:102FFC00F0033B617B681B013A6913433B617B69BE
:10300C0023F00A037B617A69BB6813437B61FB681D
:10301C003A699A61FB687A691A6200BF1C37BD462F
:10302C0080BC704780B487B000AFF860B9607A603C
:10303C00FB681B6A7B61FB681B6A23F01002FB6850
:10304C001A62FB689B693B613B6923F470433B61EB
:10305C007B681B033A6913433B617B6923F0A00334
:10306C007B61BB681B017A6913437B61FB683A691E
:10307C009A61FB687A691A6200BF1C37BD4680BC36
:10308C00704780B485B000AF786039607B689B680E
:10309C00FB60FB6823F07003FB603A68FB6813432A
:1030AC0043F00703FB607B68FA689A6000BF143733
:1030BC00BD4680BC704780B487B000AFF860B96083
:1030CC007A603B60FB689B687B617B6923F47F4380
:1030DC007B613B681A027B681A43BB6813437A69AD
:1030EC0013437B61FB687A699A6000BF1C37BD464D
:1030FC0080BC704780B485B000AF786039607B6865
:10310C0093F83C30012B01D1022346E07B6801226D
:10311C0083F83C207B68022283F83D207B681B6887
:10312C005B68FB607B681B689B68BB60FB6823F07B
:10313C007003FB603B681B68FA681343FB607B6899
:10314C001B68FA685A607B681B68164A93420ED05B
:10315C007B681B68B3F1804F09D07B681B68124AEF
:10316C00934204D07B681B68104A93420CD1BB6815
:10317C0023F08003BB603B685B68BA681343BB6099
:10318C007B681B68BA689A607B68012283F83D20D3
:10319C007B68002283F83C20002318461437BD4678
:1031AC0080BC7047002C0140000400400008004027
:1031BC0080B485B000AF786039600023FB607B6819
:1031CC0093F83C30012B01D102233DE07B680122B6
:1031DC0083F83C20FB6823F0FF023B68DB68134359
:1031EC00FB60FB6823F440723B689B681343FB60F5
:1031FC00FB6823F480623B685B681343FB60FB68ED
:10320C0023F400623B681B681343FB60FB6823F4E8
:10321C0080523B681B691343FB60FB6823F400522C
:10322C003B685B691343FB60FB6823F480423B689B
:10323C00DB691343FB607B681B68FA685A647B6824
:10324C00002283F83C20002318461437BD4680BC6E
:10325C00704780B483B000AF786000BF0C37BD46B8
:10326C0080BC704780B483B000AF786000BF0C376F
:10327C00BD4680BC704703460244934200D1704760
:10328C0003F8011BF9E7000070B500260C4D0D4C3E
:10329C00641BA410A64209D100F01AF800260A4DAE
:1032AC000A4C641BA410A64205D170BD55F8043B12
:1032BC0098470136EEE755F8043B98470136F2E79C
:1032CC001833000818330008183300081C330008A2
:1032DC00F8B500BFF8BC08BC9E467047F8B500BFF7
:0832EC00F8BC08BC9E467047C7
:1032F40000000000000000000102030406070809A2
:1033040002030405060708090A0B0C0D0E0F101022
:0433140001020000B2
:043318003101000877
:04331C000D01000897
:0C3320000024F400100000000100000078
:0400000508000E954C
:00000001FF
